:020000040000FA
:060000000A128A11F12F23
:10086C000A128A1164240A128A1183160313911432
:10087C0008000A128A1164240A128A1183160313BF
:10088C00111408000A128A1164240A128A118316A0
:10089C00031311150800831203138C1E562C572CAE
:1008AC00592C8C121A0808000A128A1164240A1294
:1008BC008A11700883120313930008008316031324
:1008CC001419692C6A2C642C11081F39031D6F2C08
:1008DC00702C642C08008B170B17831603138C16C3
:1008EC000C16831203138C120C12831603139A0129
:1008FC000B3099002030980090308312031398002D
:10090C0083160317871108000A128A1164240A122D
:10091C008A118316031391150A128A1164240A1280
:10092C008A11831203131308F200F3017208F40006
:10093C007308F5000A128A1164240A128A117003D2
:10094C007104031DAA2CAB2CAF2C8316031391122C
:10095C00B22C83160313911611167508F100740846
:10096C00F000080083120313A0000A30F0000030DE
:10097C00F1002008F900FA017908F2007A08F30076
:10098C000A128A1139260A128A117008FB000430E7
:10099C000310FB0DFF3E031DCE2C0A30F00000307F
:1009AC00F100831203132008FC00FD017C08F20007
:1009BC007D08F3000A128A1120250A128A11700888
:1009CC007B0708002830831203139400831603134B
:1009DC009101831203132008A4002108A50022080A
:1009EC00A6002308A70002300310A40DA50DA60D28
:1009FC00A70DFF3E031DFA2C2708F3002608F20072
:100A0C002508F1002408F0000030F7007A30F600D9
:100A1C001230F5000030F4000A128A11D3250A12A4
:100A2C008A117008FF3E83160313930094018715F7
:100A3C0007160800F601F31F242D252D2C2DF20985
:100A4C00F309F20A0319F30AF601F60AF11F2F2D26
:100A5C00302D352DF009F109F00A0319F10A70084F
:100A6C00710403193A2D3B2D6A2DF501F50A492D18
:100A7C0001300310F00DF10DFF3E031D3F2D013031
:100A8C00F4007408F507F11F4C2D4D2D3E2D710807
:100A9C007302031D532D70087202031C562D572D23
:100AAC005D2D7008F2027108031CF303F302013090
:100ABC000310F10CF00CFF3E031D5E2D0130F5020E
:100ACC00031D692D6A2D4D2D760803196E2D6F2D82
:100ADC00742DF209F309F20A0319F30A7308F100F1
:100AEC007208F00008007030831603138F048F1106
:100AFC000F118F100F1483160317880189018316A9
:100B0C000313850186018801871707138901831256
:100B1C000313850186018701880189010030A30038
:100B2C000130A2008630A100A030A0000A128A1168
:100B3C00E8240A128A110F3083120313A900290822
:100B4C00A1000530AA002A08A2000330AB002B0834
:100B5C00A3001530AC002C08A4002D300A128A1109
:100B6C0035270A128A110A128A1171240A128A1163
:100B7C000A128A11A0260A128A110A128A11512409
:100B8C000A128A1183120313A9002908B200320831
:100B9C008800BE2D0A128A1100280030FC0000309B
:100BAC00FB000030FA000030F90073087204710485
:100BBC0070040319E22DE32D302EFD01FD0AF32DF7
:100BCC000130F8000310F00DF10DF20DF30DF80BE0
:100BDC00E82D0130F8007808FD07F31FF62DF72DEE
:100BEC00E62D0130F8000310F90DFA0DFB0DFC0D8C
:100BFC00F80BF92D73087702031D0E2E720876027E
:100C0C00031D0E2E71087502031D0E2E7008740242
:100C1C00031C112E122E212E7008F4027108031CD5
:100C2C00710FF5027208031C720FF6027308031C95
:100C3C00730FF702791401300310F30CF20CF10C62
:100C4C00F00CFF3E031D222E0130FD02031D2F2E42
:100C5C00302EF72D7C08F3007B08F2007A08F100A7
:100C6C007908F0000800F601F11F3D2E3E2E452EAE
:100C7C00F009F109F00A0319F10AF601F60AF31F5B
:100C8C00482E492E522EF209F309F20A0319F30ADF
:100C9C000130F4007408F606F701F80170087104CD
:100CAC000319592E5A2E912EF501F50A682E013092
:100CBC000310F00DF10DFF3E031D5E2E0130F4000C
:100CCC007408F507F11F6B2E6C2E5D2E013003108E
:100CDC00F70DF80DFF3E031D6D2E71087302031DF9
:100CEC00792E70087202031C7C2E7D2E842E7008C7
:100CFC00F2027108031CF303F302771401300310A2
:100D0C00F10CF00CFF3E031D852E0130F502031D86
:100D1C00902E912E6C2E76080319952E962E9B2EC6
:100D2C00F709F809F70A0319F80A7808F1007708A7
:100D3C00F00008000A128A113F240A128A11D030DE
:100D4C00F0000030F1000A128A115A240A128A119A
:100D5C000030F000F1000A128A115A240A128A118A
:100D6C000A128A1136240A128A11D130F00000308E
:100D7C00F1000A128A115A240A128A110130F00069
:100D8C000030F1000A128A118A240A128A117008A2
:100D9C00F600760883120313BA000130F00000301D
:100DAC00F1000A128A118A240A128A117008F600BC
:100DBC00760883120313B9000130F0000030F10003
:100DCC000A128A118A240A128A117008F60076080F
:100DDC0083120313B8000130F0000030F1000A1246
:100DEC008A118A240A128A110130F0000030F100B5
:100DFC000A128A118A240A128A117008F6007608DF
:100E0C0083120313B7000130F0000030F1000A1216
:100E1C008A118A240A128A117008F6007608831245
:100E2C000313B6000030F000F1000A128A118A2474
:100E3C000A128A117008F600760883120313B500A3
:100E4C000A128A1148240A128A118230F700DD3006
:100E5C00F600F60B2F2FF70B2F2F342F08008312D1
:100E6C000313A80028080A128A11B8240A128A113E
:100E7C0083120313A5002508A80021080A128A1161
:100E8C00B8240A128A1183120313A5002508A100A5
:100E9C0022080A128A11B8240A128A118312031327
:100EAC00A5002508A20023080A128A11B8240A12E8
:100EBC008A1183120313A5002508A30024080A1223
:100ECC008A11B8240A128A1183120313A50025086B
:100EDC00A4000A128A113F240A128A11D030F000A1
:100EEC000030F1000A128A115A240A128A110030B9
:100EFC00F000F1000A128A115A240A128A110030E9
:100F0C00F000F1000A128A115A240A128A11831273
:100F1C0003132808A500A6012508F0002608F100F7
:100F2C000A128A115A240A128A11831203132108F5
:100F3C00A500A6012508F0002608F1000A128A1166
:100F4C005A240A128A110130F0000030F1000A1202
:100F5C008A115A240A128A11831203132208A5003B
:100F6C00A6012508F0002608F1000A128A115A245D
:100F7C000A128A11831203132308A500A60125085F
:100F8C00F0002608F1000A128A115A240A128A115A
:100F9C00831203132408A500A6012508F0002608D7
:100FAC00F1000A128A115A240A128A110A128A11A1
:100FBC0048240A128A11033083120313A700083045
:100FCC00A6007630A500A50BE92FA60BE92FA70BE1
:100FDC00E92F0000080083120313B301B401B5011B
:100FEC00B601B701B801B901BA01BB0183010A12FC
:040FFC008A11792DB0
:04400E00D420FF3F7C
:00000001FF
