:020000040000FA
:060000000A128A11F12F23
:100834000A128A1153240A128A118316031391147B
:1008440008000A128A1153240A128A118316031308
:10085400111408000A128A1153240A128A118316E9
:10086400031311150800831203138C1E3A2C3B2C1E
:100874003D2C8C121A0808000A128A1153240A12F9
:100884008A1170088312031393000800831603135C
:10089400981C4D2C4E2C482C70088312031399007D
:1008A4000800831603131419582C592C532C1108BF
:1008B4001F39031D5E2C5F2C532C08008B170B175C
:1008C400831603138C160C16831203138C120C124A
:1008D400831603139A01193099002430980090303C
:1008E40083120313980083160317871108000A1252
:1008F4008A1153240A128A118316031391150A12BA
:100904008A1153240A128A11831203131308F20062
:10091400F3017208F4007308F5000A128A115324D3
:100924000A128A1170037104031D992C9A2C9E2CAF
:10093400831603139112A12C831603139116111617
:100944007508F1007408F000080083120313A00076
:100954000A30F0000030F1002008F900FA017908AB
:10096400F2007A08F3000A128A11CE250A128A11BB
:100974007008FB0004300310FB0DFF3E031DBD2C6B
:100984000A30F0000030F100831203132008FC0049
:10099400FD017C08F2007D08F3000A128A110F257C
:1009A4000A128A1170087B07080028308312031387
:1009B4009400831603139101831203132008A400E7
:1009C4002108A5002208A6002308A700023003106E
:1009D400A40DA50DA60DA70DFF3E031DE92C2708A8
:1009E400F3002608F2002508F1002408F000003086
:1009F400F7007A30F6001230F5000030F4000A12E5
:100A04008A1168250A128A117008FF3E831603139F
:100A140093009401871507160800F601F31F132DA0
:100A2400142D1B2DF209F309F20A0319F30AF60136
:100A3400F60AF11F1E2D1F2D242DF009F109F00ACD
:100A44000319F10A700871040319292D2A2D592D4F
:100A5400F501F50A382D01300310F00DF10DFF3EBC
:100A6400031D2E2D0130F4007408F507F11F3B2DF2
:100A74003C2D2D2D71087302031D422D7008720246
:100A8400031C452D462D4C2D7008F2027108031CE1
:100A9400F303F30201300310F10CF00CFF3E031DCD
:100AA4004D2D0130F502031D582D592D3C2D76088E
:100AB40003195D2D5E2D632DF209F309F20A031962
:100AC400F30A7308F1007208F00008000030FC001B
:100AD4000030FB000030FA000030F90073087204A3
:100AE400710470040319772D782DC52DFD01FD0ABD
:100AF400882D0130F8000310F00DF10DF20DF30D07
:100B0400F80B7D2D0130F8007808FD07F31F8B2DBD
:100B14008C2D7B2D0130F8000310F90DFA0DFB0D1F
:100B2400FC0DF80B8E2D73087702031DA32D72089C
:100B34007602031DA32D71087502031DA32D7008F1
:100B44007402031CA62DA72DB62D7008F40271089B
:100B5400031C710FF5027208031C720FF60273086E
:100B6400031C730FF702791401300310F30CF20C19
:100B7400F10CF00CFF3E031DB72D0130FD02031DE7
:100B8400C42DC52D8C2D7C08F3007B08F2007A0857
:100B9400F1007908F0000800F601F11FD22DD32DE1
:100BA400DA2DF009F109F00A0319F10AF601F60A3F
:100BB400F31FDD2DDE2DE72DF209F309F20A0319E7
:100BC400F30A0130F4007408F606F701F80170081E
:100BD40071040319EE2DEF2D262EF501F50AFD2DD6
:100BE40001300310F00DF10DFF3E031DF32D013014
:100BF400F4007408F507F11F002E012EF22D0130C8
:100C04000310F70DF80DFF3E031D022E7108730249
:100C1400031D0E2E70087202031C112E122E192EA3
:100C24007008F2027108031CF303F3027714013015
:100C34000310F10CF00CFF3E031D1A2E0130F502D7
:100C4400031D252E262E012E760803192A2E2B2E5F
:100C5400302EF709F809F70A0319F80A7808F100A1
:100C64007708F0000800831603130F088F396038E3
:100C74008F008F110F118F100F1483160317880123
:100C840089018316031385018601880187170713D9
:100C94008901831203138501860187018801890173
:100CA4000F30B3000030B4000030A3000130A200C4
:100CB4008630A100A030A0000A128A11D7240A129B
:100CC4008A110F3083120313A9002908A1000530EB
:100CD400AA002A08A2000330AB002B08A300153099
:100CE400AC002C08A4002D300A128A1135270A12F0
:100CF4008A110A128A1160240A128A110A128A11AC
:100D0400A0260A128A11831203133408F10033084F
:100D1400F0000A128A1148240A128A110A128A114E
:100D240035240A128A1183120313A9002908B20078
:100D340032088800802E0A128A1100280A128A11A9
:100D440023240A128A11D030F0000030F1000A1274
:100D54008A113E240A128A110030F000F1000A12AE
:100D64008A113E240A128A110A128A111A240A12BA
:100D74008A11D130F0000030F1000A128A113E24A9
:100D84000A128A110130F0000030F1000A128A11AF
:100D940079240A128A117008F60076088312031364
:100DA400BC000130F0000030F1000A128A117924ED
:100DB4000A128A117008F600760883120313BB0026
:100DC4000130F0000030F1000A128A1179240A126D
:100DD4008A117008F600760883120313BA000130F2
:100DE400F0000030F1000A128A1179240A128A11E3
:100DF4000130F0000030F1000A128A1179240A123D
:100E04008A117008F600760883120313B9000130C2
:100E1400F0000030F1000A128A1179240A128A11B2
:100E24007008F600760883120313B8000030F0004F
:100E3400F1000A128A1179240A128A117008F60044
:100E4400760883120313B7000A128A112C240A129B
:100E54008A118230F700DD30F600F60B2F2FF70BE6
:100E64002F2F342F080083120313A80028080A1216
:100E74008A11A7240A128A1183120313A5002508D4
:100E8400A80021080A128A11A7240A128A118312BF
:100E94000313A5002508A10022080A128A11A72419
:100EA4000A128A1183120313A5002508A20023083D
:100EB4000A128A11A7240A128A1183120313A500A5
:100EC4002508A30024080A128A11A7240A128A11E9
:100ED40083120313A5002508A4000A128A112324EF
:100EE4000A128A11D030F0000030F1000A128A117F
:100EF4003E240A128A110030F000F1000A128A110D
:100F04003E240A128A110030F000F1000A128A11FC
:100F14003E240A128A11831203132808A500A6018D
:100F24002508F0002608F1000A128A113E240A124C
:100F34008A11831203132108A500A6012508F000D5
:100F44002608F1000A128A113E240A128A1101307D
:100F5400F0000030F1000A128A113E240A128A11AC
:100F6400831203132208A500A6012508F000260811
:100F7400F1000A128A113E240A128A118312031301
:100F84002308A500A6012508F0002608F1000A128E
:100F94008A113E240A128A11831203132408A5001D
:100FA400A6012508F0002608F1000A128A113E2441
:100FB4000A128A110A128A112C240A128A11033085
:100FC40083120313A7000830A6007630A500A50BF2
:100FD400E92FA60BE92FA70BE92F000008008312C5
:100FE4000313B501B601B701B801B901BA01BB01D8
:0C0FF400BC01BD0183010A128A11352ED8
:04400E00D420FF3F7C
:00000001FF
