:020000040000FA
:060000000A128A11F12F23
:10080E000A128A1140240A128A11831603139114B4
:10081E0008000A128A1140240A128A118316031341
:10082E00111408000A128A1140240A128A11831622
:10083E00031311150800831203138C1E272C282C6A
:10084E002A2C8C121A0808000A128A1140240A1245
:10085E008A11700883120313930008008316031382
:10086E00981C3A2C3B2C352C7008831203139900DC
:10087E000800831603131419452C462C402C11081E
:10088E001F39031D4B2C4C2C402C08008B170B17BB
:10089E00831603138C160C16831203138C120C1270
:1008AE00831603139A011930990024309800903062
:1008BE0083120313980083160317871108000A1278
:1008CE008A1140240A128A118316031391150A12F3
:1008DE008A1140240A128A11831203131308F2009C
:1008EE00F3017208F4007308F5000A128A1140240D
:1008FE000A128A1170037104031D862C872C8B2C0F
:10090E008316031391128E2C831603139116111650
:10091E007508F1007408F000080083120313A0009C
:10092E000A30F0000030F1002008F900FA017908D1
:10093E00F2007A08F3000A128A11BB250A128A11F4
:10094E007008FB0004300310FB0DFF3E031DAA2CA4
:10095E000A30F0000030F100831203132008FC006F
:10096E00FD017C08F2007D08F3000A128A11FC24B6
:10097E000A128A1170087B070800283083120313AD
:10098E009400831603139101831203132008A4000D
:10099E002108A5002208A6002308A7000230031094
:1009AE00A40DA50DA60DA70DFF3E031DD62C2708E1
:1009BE00F3002608F2002508F1002408F0000030AC
:1009CE00F7007A30F6001230F5000030F4000A120B
:1009DE008A1155250A128A117008FF3E83160313D9
:1009EE0093009401871507160800F601F31F002DDA
:1009FE00012D082DF209F309F20A0319F30AF60183
:100A0E00F60AF11F0B2D0C2D112DF009F109F00A2C
:100A1E000319F10A700871040319162D172D462DAE
:100A2E00F501F50A252D01300310F00DF10DFF3EF5
:100A3E00031D1B2D0130F4007408F507F11F282D3E
:100A4E00292D1A2D71087302031D2F2D70087202A5
:100A5E00031C322D332D392D7008F2027108031C40
:100A6E00F303F30201300310F10CF00CFF3E031DF3
:100A7E003A2D0130F502031D452D462D292D760800
:100A8E0003194A2D4B2D502DF209F309F20A0319C1
:100A9E00F30A7308F1007208F00008000030FC0041
:100AAE000030FB000030FA000030F90073087204C9
:100ABE00710470040319642D652DB22DFD01FD0A1C
:100ACE00752D0130F8000310F00DF10DF20DF30D40
:100ADE00F80B6A2D0130F8007808FD07F31F782D0A
:100AEE00792D682D0130F8000310F90DFA0DFB0D6C
:100AFE00FC0DF80B7B2D73087702031D902D7208E9
:100B0E007602031D902D71087502031D902D70083D
:100B1E007402031C932D942DA32D7008F4027108FA
:100B2E00031C710FF5027208031C720FF602730894
:100B3E00031C730FF702791401300310F30CF20C3F
:100B4E00F10CF00CFF3E031DA42D0130FD02031D20
:100B5E00B12DB22D792D7C08F3007B08F2007A08B6
:100B6E00F1007908F0000800F601F11FBF2DC02D2D
:100B7E00C72DF009F109F00A0319F10AF601F60A78
:100B8E00F31FCA2DCB2DD42DF209F309F20A031946
:100B9E00F30A0130F4007408F606F701F801700844
:100BAE0071040319DB2DDC2D132EF501F50AEA2D48
:100BBE0001300310F00DF10DFF3E031DE02D01304D
:100BCE00F4007408F507F11FED2DEE2DDF2D013029
:100BDE000310F70DF80DFF3E031DEF2D7108730284
:100BEE00031DFB2D70087202031CFE2DFF2D062E19
:100BFE007008F2027108031CF303F302771401303C
:100C0E000310F10CF00CFF3E031D072E0130F50210
:100C1E00031D122E132EEE2D76080319172E182EE5
:100C2E001D2EF709F809F70A0319F80A7808F100DA
:100C3E007708F00008007030831603138F048F11AD
:100C4E000F118F100F148316031788018901831655
:100C5E000313850186018801871707138901831203
:100C6E000313850186018701880189012D30A900B2
:100C7E002908B1000630A9002908B2000030A300EF
:100C8E000130A2008630A100A030A0000A128A1105
:100C9E00C4240A128A11063083120313A9002908EC
:100CAE00A1000530AA002A08A2000330AB002B08D1
:100CBE00A3001530AC002C08A4002D300A128A11A6
:100CCE0035270A128A110A128A114D240A128A1124
:100CDE000A128A11A0260A128A11831203133108EE
:100CEE00A900AA012908F0002A08F1000A128A11A7
:100CFE0035240A128A11831203133208A900AA019D
:100D0E002908F0002A08F1000A128A1135240A1265
:100D1E008A110A128A1122240A128A1183120313CB
:100D2E00A9002908B000300888006F2E0A128A1117
:100D3E0000280A128A1110240A128A11D030F000EB
:100D4E000030F1000A128A112B240A128A11003087
:100D5E00F000F1000A128A112B240A128A110A12CB
:100D6E008A1107240A128A11D130F0000030F100E6
:100D7E000A128A112B240A128A110130F000003057
:100D8E00F1000A128A1166240A128A117008F600FE
:100D9E00760883120313BA000130F0000030F10020
:100DAE000A128A1166240A128A117008F600760851
:100DBE0083120313B9000130F0000030F1000A1263
:100DCE008A1166240A128A117008F60076088312B8
:100DDE000313B8000130F0000030F1000A128A113E
:100DEE0066240A128A110130F0000030F1000A1256
:100DFE008A1166240A128A117008F6007608831288
:100E0E000313B7000130F0000030F1000A128A110E
:100E1E0066240A128A117008F600760883120313EC
:100E2E00B6000030F000F1000A128A1166240A1290
:100E3E008A117008F600760883120313B5000A12A1
:100E4E008A1119240A128A118230F700DD30F60059
:100E5E00F60B2F2FF70B2F2F342F080083120313AF
:100E6E00A80028080A128A1194240A128A118312E1
:100E7E000313A5002508A80021080A128A1194243C
:100E8E000A128A1183120313A5002508A100220855
:100E9E000A128A1194240A128A1183120313A500CE
:100EAE002508A20023080A128A1194240A128A1114
:100EBE0083120313A5002508A30024080A128A1121
:100ECE0094240A128A1183120313A5002508A40084
:100EDE000A128A1110240A128A11D030F000003042
:100EEE00F1000A128A112B240A128A110030F00026
:100EFE00F1000A128A112B240A128A110030F00016
:100F0E00F1000A128A112B240A128A11831203137A
:100F1E002808A500A6012508F0002608F1000A12EF
:100F2E008A112B240A128A11831203132108A50099
:100F3E00A6012508F0002608F1000A128A112B24BA
:100F4E000A128A110130F0000030F1000A128A11E3
:100F5E002B240A128A11831203132208A500A6015C
:100F6E002508F0002608F1000A128A112B240A1215
:100F7E008A11831203132308A500A6012508F00089
:100F8E002608F1000A128A112B240A128A118312E2
:100F9E0003132408A500A6012508F0002608F10079
:100FAE000A128A112B240A128A110A128A11192482
:100FBE000A128A11033083120313A7000830A60009
:100FCE007630A500A50BE92FA60BE92FA70BE92F6D
:100FDE000000080083120313B301B401B501B6017A
:100FEE00B701B801B901BA01BB0183010A128A1116
:020FFE00222EA1
:04400E00D420FF3F7C
:00000001FF
