:020000040000FA
:060000000A128A11F32F21
:100DB8000234F000700883120313930008008316AE
:100DC8000313141CE82EE92EE32E831203131308D1
:100DD8000800831603139413141383120313941631
:100DE80014161408F0390238940083160313871276
:100DF800071687118C158B170B17831203138C1189
:100E080008007030831603138F048F110F118F1091
:100E18000F148316031788018901831603138501AC
:100E280086018801903087008901831203138501A8
:100E38008601870188018901831603138C158B1796
:100E48000B17831203138C110A128A11ED260A124A
:100E58008A11F701F70A7703031D332F342F6D2FFB
:100E6800831203130610861406150330F200973018
:100E7800F100F10B3D2FF20B3D2F422F01300A12EA
:100E88008A11DD260A128A110A128A11E3260A1229
:100E98008A11F1007108F8000330F2009730F10070
:100EA800F10B542FF20B542F592F831203130614EE
:100EB8000230F3000430F200BA30F100F10B622F77
:100EC800F20B622FF30B622F00000230F100710861
:100ED800F70002307706031D722F732FB02F83128D
:100EE80003130614861006150330F2009730F1003C
:100EF800F10B7C2FF20B7C2F812F01300A128A1103
:100F0800DD260A128A110A128A11E3260A128A11A8
:100F1800F1007108F500750883120313850003308A
:100F2800F2009730F100F10B972FF20B972F9C2FBF
:100F38008312031386140230F3000430F200BA302F
:100F4800F100F10BA52FF20BA52FF30BA52F000035
:100F58000330F1007108F70003307706031DB52F41
:100F6800B62F2F2F8312031306148614061103308D
:100F7800F2009730F100F10BBF2FF20BBF2FC42FF7
:100F880001300A128A11DD260A128A110A128A1100
:100F9800E3260A128A11F1007108F400740883121A
:100FA800031388000330F2009730F100F10BDA2FB9
:100FB800F20BDA2FDF2F8312031306150230F3002A
:100FC8000430F200BA30F100F10BE82FF20BE82FF1
:100FD800F30BE82F00002D2F0A128A1100280A129D
:100FE8008A11DC260A128A11F800F401F501F601CB
:080FF80083010A128A11052F82
:04400E00D420FF3F7C
:00000001FF
