:020000040000FA
:060000000A128A110C280F
:10000800FE00030EF5000A08F6000A128A111728E6
:100018000A128A110F28F001F101F201F30183019C
:100028000A128A116728831203138C1D1C281D28A5
:1000380031287703031D2128222831281308F400CA
:100048007408F2000230F4007408F70083160313F2
:100058001410831203138C1160288C1D3428352842
:100068004A2802307706031D3A283B284A281308F5
:10007800F4007408F1000330F4007408F7008316E4
:1000880003131410831203138C1160288C1D4D2840
:100098004E28602803307706031D5328542860280B
:1000A8001308F4007408F000F701F70A8316031325
:1000B8001410831203138C1176088A00750E8300BE
:1000C800FE0E7E0E09007030831603138F048F1105
:1000D8000F118F100F1483160317880189018316D7
:1000E800031385018601880187018901831203139F
:1000F800850186018701880189010A128A11AD20CC
:100108000A128A11F701F70A7703031D8C288D2834
:10011800932883120313061486100611AA280230A6
:100128007706031D982899289F2883120313061021
:1001380086140611AA2803307706031DA428A528CB
:100148008828831203130610861006150A128A11CE
:100158000C28831603139413141383120313941691
:1001680014161408F0390238940083160313871202
:1001780087118C158B170B17831203138C1108002A
:04400E00D420FF3F7C
:00000001FF
