:020000040000FA
:060000000A128A11FB2F19
:100EDE008312031309152730F100F530F000F00BE3
:100EEE00762FF10B762F8312031309110800F200EF
:100EFE000A128A11D2270A128A1172088312031358
:100F0E008800091089100A128A116F270A128A1195
:100F1E00080038300A128A117E270A128A110C3004
:100F2E000A128A117E270A128A1101300A128A11B8
:100F3E007E270A128A1106300A128A117E270A1299
:100F4E008A1180300A128A117E270A128A1108002D
:100F5E007030831603138F048F110F118F100F141F
:100F6E0083160317880189018316031385018601F1
:100F7E008801870189018312031385018601870188
:100F8E00880189010A128A1190270A128A11C92F23
:100F9E000A128A110028FF30831203138800803052
:100FAE00F000700888050910891409112730F10026
:100FBE00F530F000F00BE12FF10BE12F831203134C
:100FCE00091580300806031DED2FEE2FFA2F09119B
:100FDE002730F100F530F000F00BF32FF10BF32F6B
:100FEE008312031309150800F30183010A128A11F3
:020FFE00AF2F13
:04400E00D420FF3F7C
:00000001FF
