:020000040000FA
:060000000A128A11CB2F49
:10000E00FF308312031388008030F00070088805DB
:10001E000910891409112730F100F530F000F00BAA
:10002E001628F10B162883120313091580300806C3
:10003E00031D222823282F2809112730F100F5301F
:10004E00F000F00B2828F10B282883120313091552
:10005E000800831203136E03031D362837287E28EB
:10006E00061086140615033083120313E000973032
:10007E00DF00DF0B4028E00B402801300A128A1502
:10008E0068230A128A110A128A1576230A128A1115
:10009E0083120313DF00E0015F08E7006008E80049
:1000AE000A128A154C250A128A1103308312031381
:1000BE00E0009730DF00DF0B6228E00B622883122E
:1000CE0003130614023083120313E1000430E00020
:1000DE00B930DF00DF0B7128E00B7128E10B7128BE
:1000EE007828023083120313DF005F08EE0002301F
:1000FE006E06031D83288428C32806148610061551
:10010E00033083120313E0009730DF00DF0B8D28DE
:10011E00E00B8D2801300A128A1568230A128A1103
:10012E000A128A1576230A128A1183120313DF002C
:10013E005F08EB00033083120313E0009730DF00FB
:10014E00DF0BA728E00BA7288312031386140230B7
:10015E0083120313E1000430E000B930DF00DF0B3F
:10016E00B628E00BB628E10BB628BD280330831263
:10017E000313DF005F08EE0003306E06031DC82870
:10018E00C928292906148614061103308312031375
:10019E00E0009730DF00DF0BD228E00BD2280130D1
:1001AE000A128A1568230A128A110A128A157623F0
:1001BE000A128A1183120313DF005F08EA00FA3075
:1001CE00F6000030F7006A08DF00E0015F08F0007B
:1001DE006008F1007D30F2000030F3000A128A153B
:1001EE0035240A128A117108F9007008F8000A12F3
:1001FE008A15A1250A128A11760883120313E100CB
:10020E006108E900033083120313E0009730DF002A
:10021E00DF0B0F29E00B0F29831203130615023093
:10022E0083120313E1000430E000B930DF00DF0B6E
:10023E001E29E00B1E29E10B1E292529831203130B
:10024E00EE01EE0A080083120313AA002130A30068
:10025E002308A600762A25302C06031937293829BB
:10026E0044292C08A3002A08840023088313800045
:10027E000130A3002308AA07762AA70120088400CC
:10028E000A128A150A200A128A112E3A031D5029C3
:10029E00512988290130A3002308A007AB01772933
:1002AE00831203132B08A3002308F0000A300A124E
:1002BE008A15D0230A128A1183120313A40024086C
:1002CE00AB00200884000A128A150A200A128A112D
:1002DE00D03EA3002308AB070130A3002308A007DC
:1002EE00200884000A128A150A200A128A110A129C
:1002FE008A15BE230A128A110318862987295729BF
:10030E008929AB01013083120313A007FF302007A8
:10031E0084000A128A150A200A128A11AC00A30060
:10032E00A4012408003A03199D29762A2308003ACD
:10033E000319882A643A0319A8290D3A0319A82922
:10034E00762A2608840083130008A800840A000871
:10035E00A9000230A3002308A607A91FB729B829B0
:10036E00C1290330A3002308A704A809A909A80AD4
:10037E000319A90A2B08031DC529C629D029280847
:10038E002904031DCB29CC29D0290130A300230831
:10039E00AB07AC01AC0A2C08A3002307013E840076
:1003AE000A128A150A200A128A11A4000A128A1544
:1003BE000A200A128A11A50025082902031DE9291F
:1003CE00240828020318EC29ED29EE29F82901301A
:1003DE00A3002308AC0705302C06031DF729F829C6
:1003EE00D2292B08A300A401A31BA4032408803A3E
:1003FE00803C031D042A23082C020318072A082A0E
:10040E00092A232A831203132B08A300A401A31B7A
:10041E00A4032408803AA50080302502031D192A62
:10042E002C08230203181C2A1D2A232A83120313C5
:10043E002C08A3002308AB008312031327080339EB
:10044E0003192A2A2B2A6D2A2D30A3002A0884008C
:10045E002308831380000130A3002308AA076D2A06
:10046E000A30F8000030F9002B08A3002307013EE4
:10047E0084000A128A150A200A128A11F0000A1242
:10048E008A150A200A128A11F1002908F300280899
:10049E00F2000A128A1508250A128A117108FB0049
:1004AE007008FA000A128A15CE240A128A117808E8
:1004BE00303E83120313A4002408AC002C08A300C2
:1004CE002A088400230883138000322AFF30A300F9
:1004DE002308AB072B0A031D752A762A372A01300B
:1004EE00A007FF30200784000A128A150A200A127C
:1004FE008A11A3002308AC002C08031D872A882A22
:10050E0032292A0884008313800108008312031302
:10051E0041088039C2004208CB004108C2004207A0
:10052E00C3004308D200C01F9D2A9E2A9F2A521440
:10053E0052080319A32AA42AB42A520A031DA82A70
:10054E00A92AB12A0030C1000030C0000030BF001F
:10055E000030BE00C017C101BC2A0030C1000030FF
:10056E00C0000030BF000030BE003D088039C20020
:10057E004208CB063D08C2004207C3004308D30021
:10058E00BC1FCA2ACB2ACC2A531453080319D02ACB
:10059E00D12AE12A530A031DD52AD62ADE2A003093
:1005AE00BD000030BC000030BB000030BA00BC17EC
:1005BE00BD01E92A0030BD000030BC000030BB0098
:1005CE000030BA003D083C043B043A04031DF02AF7
:1005DE00F12A0A2B0030C1000030C0000030BF00ED
:1005EE000030BE008030C0047F30C1044B08C20012
:1005FE004208C1044108BD004008BC003F08BB00D2
:10060E003E08BA00692C5208031D0E2B0F2B182B17
:10061E000030BD000030BC000030BB000030BA001E
:10062E00692C5208C200C3014308C5005308420298
:10063E00C400031CC50344087F3ECC0045080318C4
:10064E00013E003ECD004108CA004008C9003F08E7
:10065E00C8003E08C7000030C1000030C0000030A6
:10066E00BF000030BE000030D1000030D00000309E
:10067E00CF000030CE00D3018E2B53080319482B28
:10068E00492B692B0130C2000310C70DC80DC90DCF
:10069E00CA0DC20B4B2B0130C2000310BE0DBF0D95
:1006AE00C00DC10DC20B542BD11F5E2B5F2B602BC7
:1006BE003E140130C2000310CE0DCF0DD00DD10D62
:1006CE00C20B622B3D084A02031D772B3C084902E0
:1006DE00031D772B3B084802031D772B3A08470270
:1006EE00031C7A2B7B2B8A2B51173A08C7023B0827
:1006FE00031C3B0FC8023C08031C3C0FC9023D08FB
:10070E00031C3D0FCA020130C2004208D3071A3043
:10071E005302031C932B942B442B4A084904480480
:10072E00470403199B2B9C2BBB2B4E14BB2B013068
:10073E00C2000310BE0DBF0DC00DC10DC20BA02B0C
:10074E00D11FAA2BAB2BAC2B3E140130C2000310D1
:10075E00CE0DCF0DD00DD10DC20BAE2BFF30CC0771
:10076E000318CD0AFF30CD07C01FBE2BBF2B9E2B0B
:10077E00D301D11FC32BC42BE02BFF304E05C2007B
:10078E00FF304F05C300FF305005C4007F305105C8
:10079E00C50045084404430442040319D72BD82B43
:1007AE00DB2BD301D30AE02B3E1CDE2BDF2BE02B01
:1007BE00D82B53080319E42BE52B162C0130BE075A
:1007CE00003003180130BF07003003180130C00796
:1007DE00003003180130C107411CF62BF72B162CE5
:1007EE003E08C2003F08C3004008C4004108C500CF
:1007FE000130C600450DC50CC40CC30CC20CC60B93
:10080E00012C4508C1004408C0004308BF0042083F
:10081E00BE000130CC070318CD0A0030CD074D08BD
:10082E00803AFF0080307F02031D1F2CFF304C02E8
:10083E00031C222C232C312CFF3083120313CC00EB
:10084E000030CD000030C1000030C0000030BF00CD
:10085E000030BE00831203134D08803AFF00803033
:10086E007F02031D3C2C01304C0203183F2C402C00
:10087E004D2C83120313CC01CD010030C10000308A
:10088E00C0000030BF000030BE00CB018312031346
:10089E004C08C2004208D200521C562C572C592C20
:1008AE00C0175D2C7F30C2004208C0055208C2003E
:1008BE000310420CC3004308C1004B08C20042089B
:1008CE00C104012B08008312031323088039A800EA
:1008DE002808AD002308A8002807A9002908B3009E
:1008EE00A21F7A2C7B2C7C2C331433080319802CFA
:1008FE00812C902C330A031D852C862C8E2C0030D7
:10090E00A3000030A2000030A1000030A000A2170A
:10091E00982C0030A3000030A2000030A10000305F
:10092E00A00027088039A8002808AD062708A800CF
:10093E002807A9002908B200A61FA62CA72CA82CB0
:10094E00321432080319AC2CAD2CBC2C320A031D08
:10095E00B12CB22CBA2C0030A7000030A60000300B
:10096E00A5000030A400A617C42C0030A70000304C
:10097E00A6000030A5000030A40032080319C82CD0
:10098E00C92CCE2C3308031DCD2CCE2CD72C0030E9
:10099E00A3000030A2000030A1000030A000CA2F3A
:1009AE002008A8002808F00026080A128A158024BC
:1009BE000A128A11710883120313B9007008B80065
:1009CE003808A800A901AA01AB012B08B1002A081A
:1009DE00B0002908AF002808AE003908A800A90108
:1009EE00AA01AB012B08B7002A08B6002908B500EA
:1009FE002808B4002108A8002808F00025080A12CB
:100A0E008A1580240A128A11710883120313B90001
:100A1E007008B8003808A800A901AA01AB0128087F
:100A2E00AE07290803110318013E03191F2DAF0746
:100A3E002A0803110318013E0319262DB0072B08AF
:100A4E0003110318013E03192D2DB1073908A80013
:100A5E00A901AA01AB012808B4072908031103183C
:100A6E00013E03193B2DB5072A0803110318013E59
:100A7E000319422DB6072B0803110318013E031963
:100A8E00492DB7072208A8002808F00024080A12EA
:100A9E008A1580240A128A11710883120313B90071
:100AAE007008B8003808A800A901AA01AB012808EF
:100ABE00AE07290803110318013E0319672DAF076E
:100ACE002A0803110318013E03196E2DB0072B08D7
:100ADE0003110318013E0319752DB1073908A8003B
:100AEE00A901AA01AB012808B407290803110318AC
:100AFE00013E0319832DB5072A0803110318013E81
:100B0E0003198A2DB6072B0803110318013E03198A
:100B1E00912DB7070830A8000310AE0DAF0DB00D24
:100B2E00B10DA80B932D2108A8002808F000240869
:100B3E000A128A1580240A128A117108831203136D
:100B4E00B9007008B8003808A8003908A900AA0131
:100B5E00AB012808AE07290803110318013E03193B
:100B6E00B92DAF072A0803110318013E0319C02D32
:100B7E00B0072B0803110318013E0319C72DB10747
:100B8E002008A8002808F00025080A128A158024DB
:100B9E000A128A11710883120313B9007008B80083
:100BAE003808A8003908A900AA01AB012808AE0729
:100BBE00290803110318013E0319E62DAF072A0871
:100BCE0003110318013E0319ED2DB0072B08031175
:100BDE000318013E0319F42DB1070830A8000310C5
:100BEE00AE0DAF0DB00DB10DA80BF62D2008A8005F
:100BFE002808F00024080A128A1580240A128A1185
:100C0E00710883120313B9007008B8003808A800E1
:100C1E003908A900AA01AB012808AE07290803115B
:100C2E000318013E03191C2EAF072A0803110318DF
:100C3E00013E0319232EB0072B0803110318013EA2
:100C4E0003192A2EB1072108A8002808F00026084B
:100C5E000A128A1580240A128A117108831203134C
:100C6E00B9007008B8003808A8003908A900AA0110
:100C7E00AB012808B407290803110318013E031914
:100C8E00492EB5072A0803110318013E0319502EE9
:100C9E00B6072B0803110318013E0319572EB70789
:100CAE002208A8002808F00025080A128A158024B8
:100CBE000A128A11710883120313B9007008B80062
:100CCE003808A8003908A900AA01AB012808B40702
:100CDE00290803110318013E0319762EB5072A08B9
:100CEE0003110318013E03197D2EB6072B080311BD
:100CFE000318013E0319842EB7072208A8002808FE
:100D0E00F00026080A128A1580240A128A11710828
:100D1E0083120313B9007008B8003808A800390808
:100D2E00A900AA01AB0108300310A80DA90DAA0D48
:100D3E00AB0DFF3E031D9B2E2808B4072908031197
:100D4E000318013E0319AC2EB5072A080311031828
:100D5E00013E0319B32EB6072B0803110318013EEB
:100D6E000319BA2EB7072E08A8002F08A9003008BD
:100D7E00AA003108AB0018300310AB0CAA0CA90C5A
:100D8E00A80CFF3E031DC32E2808B4072908031123
:100D9E000318013E0319D42EB5072A0803110318B0
:100DAE00013E0319DB2EB6072B0803110318013E73
:100DBE000319E22EB7070830A8000310AE0DAF0DD1
:100DCE00B00DB10DA80BE42E33083207A800A9010F
:100DDE00A90D2808823EB80029080318013EFF3EDF
:100DEE00B900162F0130A8000310B40DB50DB60DC5
:100DFE00B70DA80BFB2EB11F052F062F072F34148E
:100E0E000130A8000310AE0DAF0DB00DB10DA80B43
:100E1E00092FFF30B8070318B90AFF30B907B61FFC
:100E2E00192F1A2FF92EB201B11F1E2F1F2F3B2F74
:100E3E00FF302E05A800FF302F05A900FF3030052A
:100E4E00AA007F303105AB002B082A0429042804A0
:100E5E000319322F332F362FB201B20A3B2F341C17
:100E6E00392F3A2F3B2F332F320803193F2F402FA4
:100E7E00712F0130B407003003180130B507003070
:100E8E0003180130B607003003180130B707371CBE
:100E9E00512F522F712F3408A8003508A90036089B
:100EAE00AA003708AB000130AC002B0DAB0CAA0C1E
:100EBE00A90CA80CAC0B5C2F2B08B7002A08B600A7
:100ECE002908B5002808B4000130B8070318B90A7C
:100EDE000030B9073908803AFF0080307F02031DC9
:100EEE007A2FFF303802031C7D2F7E2F892F7F3003
:100EFE0083120313B7008030B6000030B500003007
:100F0E00B400BE2F831203133908803AFF008030DD
:100F1E007F02031D942F013038020318972F982F4C
:100F2E00A42F003083120313B7000030B600003038
:100F3E00B5000030B400AD01BE2F83120313380884
:100F4E00A8002808B300FF30B405FF30B5057F3088
:100F5E00B6050030B705331CB52FB62FB72FB61711
:100F6E003308A8000310280CA9002908B7002D0883
:100F7E00A8002808B7043708A3003608A2003508D1
:100F8E00A1003408A0000800831603130A128A1564
:100F9E0063230A128A11C6000A128A1564230A12E2
:100FAE008A11C7000A128A1565230A128A11C8000F
:100FBE000A128A1566230A128A11C9000A128A15A4
:100FCE0067230A128A11CA008313A0308400C63028
:100FDE000A128A156E230A128A11653084006E3049
:100FEE000A128A156E230A128A1183010A128A15B1
:100FFE00402FFF1B0A2883137F1883170008840ACB
:10100E000319FF0A080008308A000408840A8207C0
:10101E000034013400340A34003464340034E834CB
:10102E00033410342734533431343A3420342034DA
:10103E002034533432343A342034203420342034A3
:10104E00533433343A34003425342E343334693443
:10105E00003425342E343434693400346D3456342F
:0A106E0020340034433420340034F1
:1016C60043346F346E3474346134F000700883121E
:1016D60003139300080064008001840A04060319BA
:1016E600003404066F2B83160313141C7B2B7C2BF0
:1016F600762B831203131308080083160313981C12
:10170600852B862B802B7008831203139900080003
:101716008312031309152730F100F530F000F00BA2
:10172600922BF10B922B8312031309110800F2007E
:101736000A128A1107200A128A15720883120313E5
:101746008800091089100A128A158B230A128A1535
:101756000800F2000A128A1107200A128A15720876
:10176600831203138800091489100A128A158B2321
:101776000A128A150800F100F0013A3071020318C6
:10178600C52BC62BCE2B30307102031CCB2BCC2B9A
:10179600CE2BF001F00A700C0800F300F201731C66
:1017A600D52BD62BDA2B7008F1007108F20703103F
:1017B600F00D0310F30C7308031DE22BE32BD22B61
:1017C6007208080083160313941314138312031369
:1017D600941614161408F03902389400831603136D
:1017E6008712071687118C158B170B178312031395
:1017F6008C1108008B170B17831603138C160C1607
:10180600831203138C120C12831603139A011930D8
:1018160099002430980090308312031398008316A1
:1018260003178711080038300A128A159A230A12FC
:101836008A150C300A128A159A230A128A15013063
:101846000A128A159A230A128A1506300A128A156E
:101856009A230A128A1580300A128A159A230A12C6
:101866008A150800F401F501701C3A2C3B2C412C1A
:101876007208F4070318F50A7308F5070130031018
:10188600F20DF30DFF3E031D422C01300310F10C47
:10189600F00CFF3E031D492C70087104031D542CE7
:1018A600552C372C7508F1007408F00008006F2CD1
:1018B6007408FF00730884000A128A1500200A12B1
:1018C6008A150A128A15AC230A128A150130F30703
:1018D6000318F40A0030F407740883120313FF0098
:1018E600730884000A128A1500200A128A15003A23
:1018F600031D7E2C7F2C5B2C0800F800F401F501FB
:101906007008F200F3017208F6007308F700781CFD
:101916008D2C8E2C942C7608F4070318F50A77087C
:10192600F50701300310F60DF70DFF3E031D952C4C
:101936000310F80C7808031DA12CA22C8A2C75081C
:10194600F1007408F0000800F700F501F601C22C5A
:1019560075087707F200720884000008F300F401A6
:101966007308F0007408F1000A128A1580230A121F
:101976008A150130F5070318F60A0030F6077508D0
:101986007707F2007208840083130008031DCC2C2D
:10199600CD2CAB2C0800780879040319D32CD42C51
:1019A600032DFD01FD0AE22C01300310F80DF90D9F
:1019B600FF3E031DD82C0130FC007C08FD07F91FF3
:1019C600E52CE62CD72C79087B02031DEC2C780835
:1019D6007A02031CEF2CF02CF62C7808FA02790810
:1019E600031CFB03FB0201300310F90CF80CFF3E4D
:1019F600031DF72C0130FD02031D022D032DE62CDD
:101A06007B08F9007A08F8000800F501F60170086D
:101A1600710403190F2D102D472DF701F70A1E2DFE
:101A260001300310F00DF10DFF3E031D142D0130A2
:101A3600F4007408F707F11F212D222D132D013014
:101A46000310F50DF60DFF3E031D232D71087302DD
:101A5600031D2F2D70087202031C322D332D3A2DD3
:101A66007008F2027108031CF303F30275140130C7
:101A76000310F10CF00CFF3E031D3B2D0130F70265
:101A8600031D462D472D222D7608F1007508F0001E
:101A96000800831203136708F0006808F10000309D
:101AA600F11BFF30F200F30001300A128A15862678
:101AB6000A128A15730883120313A7007208A60078
:101AC6007108A5007008A4004530A3009C30A20050
:101AD6004030A1000030A0000A128A116A240A12BE
:101AE6008A15831203132308C1002208C0002108A7
:101AF600BF002008BE004330BD007F30BC00003070
:101B0600BB000030BA000A128A118D220A128A1509
:101B1600831203133D08D7003C08D6003B08D500C6
:101B26003A08D4000A128A150A260A128A1583125E
:101B360003135508E6005408E50008008312031352
:101B4600A101F71FA72DA82DAF2DF609F709F60A53
:101B56000319F70AA101A10AF91FB22DB32DBC2D55
:101B6600F809F909F80A0319F90A0130FA007A089E
:101B7600A106A201A301760877040319C32DC42D7B
:101B8600FB2DA001A00AD22D01300310F60DF70D92
:101B9600FF3E031DC82D0130FA007A08A007F71F83
:101BA600D52DD62DC72D01300310A20DA30DFF3E56
:101BB600031DD72D77087902031DE32D76087802D9
:101BC600031CE62DE72DEE2D7608F8027708031C98
:101BD600F903F902221401300310F70CF60CFF3E4C
:101BE600031DEF2D0130A002031DFA2DFB2DD62D6E
:101BF60021080319FF2D002E052EA209A309A20A0A
:101C06000319A30A2308F7002208F60008000310A8
:101C160083120313560D570DD8005808DE005E08D0
:101C2600031D162E172E202E0030D7000030D600AA
:101C36000030D5000030D400852E5408D800550851
:101C4600D9005608DA005708DB001F300310DB0CFA
:101C5600DA0CD90CD80CFF3E031D292E5808DC00DF
:101C66005C08DD00D617FF30D405FF30D505FF3000
:101C7600D6050030D7059630DE02DE1F432E442EF1
:101C86005E2E5E08803A973E03184A2E4B2E4C2E47
:101C9600172E01300310D70CD60CD50CD40CFF3EF2
:101CA600031D4D2E0130D8005808DE07031D5C2E9B
:101CB6005D2E4C2E752E20305E02031C632E642E84
:101CC600702E172E0130D8000310D40DD50DD60D69
:101CD600D70DD80B672E0130DE025E08031D742E69
:101CE600752E652E5D080319792E7A2E852ED40958
:101CF600D509D609D709D40A0319D50A0319D60A6C
:101D06000319D70A0800F800780803198B2E8C2EC1
:101D1600A02EF31F8F2E902EA02E7009FA007109A7
:101D2600FB007209FC007309FD00FA0A0319FB0A9D
:101D36000319FC0A0319FD0AA82E7308FD00720890
:101D4600FC007108FB007008FA0073087204710445
:101D56007004031DAF2EB02EB92E0030F3000030F4
:101D6600F2000030F1000030F0003F2F9630F40012
:101D76007408F900CB2E0130F4007408F90701301D
:101D86000310FD0CFC0CFB0CFA0CFF3E031DC32ECE
:101D9600FE307D05031DD02ED12EBE2EED2E013038
:101DA600F4007408F9070130FA070030031801300F
:101DB600FB07003003180130FC0700300318013020
:101DC600FD0701300310FD0CFC0CFB0CFA0CFF3E6A
:101DD600031DE52EFF307D05031DF22EF32ED22EB8
:101DE600FF2E0130F9020130F4000310FA0DFB0D4D
:101DF600FC0DFD0DF40BF82EFC1B022F032F092FF3
:101E0600023079020318082F092FF42E79180C2FA7
:101E16000D2F152FFF30FA05FF30FB057F30FC052F
:101E2600FF30FD050310F90C7908F400F501F60101
:101E3600F70118300310F40DF50DF60DF70DFF3E02
:101E4600031D1D2F7408FA047508FB047608FC04AC
:101E56007708FD0478080319312F322F372FF31F27
:101E6600352F362F372FFD177D08F3007C08F2003B
:101E76007B08F1007A08F00008007030831603131F
:101E86008F048F110F118F100F14831603178801FB
:101E96008901831603138501860188019030870026
:101EA600890183120313850186018701880189014F
:101EB600831603138C158B170B17831203138C11C0
:101EC6000A128A15E5230A128A1583120313EE01F4
:101ED600EE0A0A128A1516240A128A150A128A1599
:101EE600FD230A128A150B30F3008030F4000A1223
:101EF6008A155A240A128A150A128A1130200A12E1
:101F06008A151C3083120313E2006208A0006B08D6
:101F1600E300E4016308A1006408A200C1300A12CC
:101F26008A112A210A128A15213083120313E2002C
:101F36006208A0006608A2006508A100BC300A126B
:101F46008A112A210A128A151C3083120313E20011
:101F56006208A0006908E300E4016308A1006408C0
:101F6600A200B7300A128A112A210A128A15C03035
:101F76000A128A159A230A128A15BC30F300003019
:101F8600F4000A128A155A240A128A152630F3001A
:101F96008030F4000A128A155A240A128A15C130B2
:101FA600F3000030F4000A128A155A240A128A1520
:101FB6002B30F3008030F4000A128A155A240A12D4
:101FC6008A15B730F3000030F4000A128A155A2435
:101FD6000A128A152A30F3008030F4000A128A1594
:101FE6005A240A128A15C1300A128A15A7240A121F
:0A1FF6008A157F2F0A128A110028B5
:04400E00D420FF3F7C
:00000001FF
