:020000040000FA
:060000000A128A110E280D
:10000800FE00030EF9000408FA000A08FB000A12B1
:100018008A1188280A128A11112883133030FD00AA
:100028000130FE00D830FF00203084000A128A1107
:10003800C9210A128A11B501F001F101F201F30197
:10004800F401F50183010A128A113129831203137D
:10005800B2006428831603130F138F120F12862819
:10006800831603130F138F120F1686288316031394
:100078000F138F160F128628831603130F138F166C
:100088000F168628831603130F178F120F12862850
:10009800831603130F178F120F1686288316031360
:1000A8000F178F160F128628831603130F178F1634
:1000B8000F168628831603130F178F160F1286281C
:1000C8003208B000B1013108003A03196C285E28E3
:1000D8003008003A03192E28013A03193428033A44
:1000E80003193A28013A03194028073A0319462800
:1000F800013A03194C28033A03195228013A031903
:1001080058285E280F1408000B1C8B288C2894286C
:100118000B108B130A128A1173210A128A11DA281A
:10012800831203130C1F99289A28B6280C131E084B
:10013800F7007708F2007208F7007708B500720830
:100148000F39F7007708F3007208F700043003103E
:10015800F70CFF3E031DAB2877080F39F800780825
:10016800B500DA280B1DB928BA28DA287108031D4A
:10017800BE28BF28CB28091089147308203E8400A4
:10018800831300088700F101F10A0B11DA287103C3
:10019800031DCF28D028DA2809148910F101350861
:1001A800203E84008313000887000B117B088A0017
:1001B8007A088400790E8300FE0E7E0E0900063050
:1001C8000A128A112A200A128A11831603138F1120
:1001D8000F118F108B170B178B158B160B160C170F
:1001E8000B110B10831203130C138316031316142D
:1001F8009614161581170113811201128111010835
:10020800F83906388100DC30831203138100831625
:1002180003178801013089008316031385018312AF
:100228000313850107308316031386008312031313
:10023800860183160313870183120313870183162C
:10024800031388018312031388018316031389019A
:10025800831203138901F10108000A128A11E320AD
:100268000A128A11E83083120313B0000330B10078
:100278000A128A11AB210A128A11831203131F145E
:100288000D3083120313B400FB30B300B30B4A29BB
:10029800B40B4A29831203139F140D3083120313DE
:1002A800B400FB30B300B30B5729B40B57298312A2
:1002B80003139F18602961295B2970087202031CC7
:1002C80066296729682986157008720203186D293E
:1002D8006E293629861136290A128A110E288312A8
:1002E8000313061C782979297C29F501F50A8B1353
:1002F80006187F29802990297503031D84298529DB
:100308009029F5017008013EF6007608F00008080B
:10031800013E88008B17AA29861C932994299729BE
:10032800F401F40A8B1386189A299B29AA297403C5
:10033800031D9F29A029AA29F4017008FF3EF60091
:100348007608F0000808FF3E88008B1708008B1716
:100358000B17831603130C17831203130C13403067
:100368009F00831603139F01831203133008B20002
:10037800B20DB20D1F083206C33932069F000C13A6
:1003880008007E088A007F0882000A128A11C521A7
:100398000A128A118000840A04087D0603190034B1
:1003A800FF0A0319FE0AC9293F3406345B344F3467
:1003B80066346D347D3407347F346F3477347C345D
:0803C80039345E3479347134DC
:04400E00D120FF3F7F
:00000001FF
