:020000040000FA
:060000000A128A110E280D
:10000800FE00030EF2000408F3000A08F4000A12C6
:100018008A1183280A128A11112883133030FD00AF
:100028000130FE006530FF00203084000A128A117A
:1000380056210A128A11F701F80183010A128A115E
:10004800102983120313B0005F28831603130F13BC
:100058008F120F128128831603130F138F120F1696
:100068008128831603130F138F160F128128831606
:1000780003130F138F160F168128831603130F17F8
:100088008F120F128128831603130F178F120F1662
:100098008128831603130F178F160F1281288316D2
:1000A80003130F178F160F168128831603130F17C4
:1000B8008F160F1281283008F500F6017608003AED
:1000C8000319672859287508003A03192928013A9D
:1000D80003192F28033A03193528013A03193B2835
:1000E800073A03194128013A03194728033A031923
:1000F8004D28013A0319532859280F1408000B1CDE
:100108008628872891288312031306188C288D289F
:1001180091280808013E88000B100B1C942895288C
:100128009F288312031386189A289B289F2808085B
:10013800FF3E88000B10831203130C1FA428A52868
:10014800C7280C130B101E08F0007008F800780878
:10015800F0007008F70078080F39F0007008F80010
:100168007708F00004300310F00CFF3E031DB72899
:1001780070080F39F1007108F7007808203E8400F4
:1001880083130008870074088A0073088400720EBD
:100198008300FE0E7E0E090007300A128A11252000
:1001A8000A128A11831603138F110F118F108B17E0
:1001B8000B178B158B160B160C170B110B108312C4
:1001C80003130C13831603131614961416158316AB
:1001D80003178801013089008316031385018312F0
:1001E8000313850107308316031386008312031354
:1001F800860183160313870183120313870183166D
:1002080003138801831203138801831603138901DA
:1002180083120313890108000A128A11D0200A12D6
:100228008A11E830F5000330F6000A128A113821E5
:100238000A128A11831203131F141A30831203132C
:10024800B200F730B100B10B2729B20B27292C29AE
:10025800831203139F149F18322933292F29091455
:1002680015290A128A110E288B170B1783160313E8
:100278000C17831203130C1340309F0083160313CB
:100288009F01750883120313B000B00DB00D1F084D
:100298003006C33930069F000C1308007E088A0018
:1002A8007F0882000A128A1152210A128A118000DC
:1002B800840A04087D0603190034FF0A0319FE0A9C
:1002C80056293F3406345B344F3466346D347D34FC
:1002D80007347F346F3477347C3439345E3479347E
:0202E80071346F
:04400E00D120FF3F7F
:00000001FF
