:020000040000FA
:060000000A128A110C280F
:10000800FE00030EF2000A08F3000A128A11832880
:100018000A128A110F2883133030FD000130FE00C8
:100028009930FF00203084000A128A118A210A12AE
:100038008A11F601F701F801F90183010A128A1100
:10004800D52883120313B0005F28831603130F13F8
:100058008F120F128128831603130F138F120F1696
:100068008128831603130F138F160F128128831606
:1000780003130F138F160F168128831603130F17F8
:100088008F120F128128831603130F178F120F1662
:100098008128831603130F178F160F1281288316D2
:1000A80003130F178F160F168128831603130F17C4
:1000B8008F160F1281283008F400F5017508003AF0
:1000C8000319672859287408003A03192928013A9E
:1000D80003192F28033A03193528013A03193B2835
:1000E800073A03194128013A03194728033A031923
:1000F8004D28013A0319532859280F1408000B1CDE
:100108008628872892288312031306188C288D289E
:1001180092280808013E88000B10CE280B1C952851
:100128009628A1288312031386189B289C28A128A7
:100138000808FF3E88000B10CE28831203130C1FFB
:10014800A628A728C4280C130B101E08F000700856
:10015800F7007708F0007008F80077080F39F0000A
:100168007008F9007708F00004300310F00CFF3E27
:10017800031DB92870080F39F1007108F800CE285E
:100188000B1DC728C828CE280A128A11A9210A12CD
:100198008A110B1173088A00720E8300FE0E7E0E00
:1001A80009000A128A1121210A128A11E830F40082
:1001B8000330F5000A128A116C210A128A1183127F
:1001C80003131F141A3083120313B200F730B1005F
:1001D800B10BEC28B20BEC28F128831203139F14FF
:1001E8009F18F728F828F4287608031DFC28FD280E
:1001F8000729091489107808203E84008313000811
:100208008700F601F60A7603031D0B290C29152928
:10021800091089147908203E840083130008870098
:10022800F60108087702031C1A291B291C298615C0
:100238008611DA280A128A110C2807300A128A1144
:1002480025200A128A11831603138F110F118F109C
:100258008B170B178B158B160B160C170B110B1016
:10026800831203130C13831603131614961416150E
:1002780081170113811201128111F83081050230B2
:100288008312031381008316031788010130890044
:100298008316031385018312031385010730831620
:1002A8000313860083120313860183160313870141
:1002B8008312031387018316031388018312031320
:1002C8008801831603138901831203138901080027
:1002D8008B170B17831603130C17831203130C13B6
:1002E80040309F00831603139F0174088312031381
:1002F800B000B00DB00D1F083006C33930069F009E
:100308000C1308007E088A007F0882000A128A11EE
:1003180086210A128A118000840A04087D060319BE
:100328000034FF0A0319FE0A8A293F3406345B3475
:100338004F3466346D347D3407347F346F3477340A
:100348007C3439345E34793471347608031DAD2930
:10035800AE29B029F601F60A7603031DB429B5299A
:06036800B629F6010800B1
:04400E00D120FF3F7F
:00000001FF
