:020000040000FA
:060000000A128A110C280F
:10000800FE00030EF2000A08F3000A128A11832880
:100018000A128A110F2883133030FD000130FE00C8
:100028008E30FF00203084000A128A117F210A12C4
:100038008A11F601F701F801F90183010A128A1100
:100048001D2983120313B0005F28831603130F13AF
:100058008F120F128128831603130F138F120F1696
:100068008128831603130F138F160F128128831606
:1000780003130F138F160F168128831603130F17F8
:100088008F120F128128831603130F178F120F1662
:100098008128831603130F178F160F1281288316D2
:1000A80003130F178F160F168128831603130F17C4
:1000B8008F160F1281283008F400F5017508003AF0
:1000C8000319672859287408003A03192928013A9E
:1000D80003192F28033A03193528013A03193B2835
:1000E800073A03194128013A03194728033A031923
:1000F8004D28013A0319532859280F1408000B1CDE
:100108008628872891288312031306188C288D289F
:1001180091280808013E88000B100B1C942895288C
:100128009F288312031386189A289B289F2808085B
:10013800FF3E88000B10831203130C1FA428A52868
:10014800C1280C130B101E08F0007008F700770880
:10015800F0007008F80077080F39F0007008F9000F
:100168007708F00004300310F00CFF3E031DB72899
:1001780070080F39F1007108F8000B1DC428C52854
:10018800CB280A128A119E210A128A110B117308B0
:100198008A00720E8300FE0E7E0E090007300A12D6
:1001A8008A1125200A128A11831603138F110F1141
:1001B8008F108B170B178B158B160B160C170B1133
:1001C8000B10831203130C138316031316149614BF
:1001D800161581170113811201128111F83081055A
:1001E800023083120313810083160317880101303C
:1001F80089008316031385018312031385010730D1
:1002080083160313860083120313860183160313D0
:10021800870183120313870183160313880183124E
:1002280003138801831603138901831203138901B9
:1002380008000A128A11D2200A128A11E830F40042
:100248000330F5000A128A1161210A128A118312F9
:1002580003131F141A3083120313B200F730B100CE
:10026800B10B3429B20B34293929831203139F1493
:100278009F183F2940293C297608031D4429452910
:100288004F29091489107808203E84008313000838
:100298008700F601F60A7603031D532954292229FB
:1002A800091089147908203E840083130008870008
:1002B800F60122290A128A110C288B170B178316AC
:1002C80003130C17831203130C1340309F0083167B
:1002D80003139F01740883120313B000B00DB00D0F
:1002E8001F083006C33930069F000C1308007E082B
:1002F8008A007F0882000A128A117B210A128A1159
:100308008000840A04087D0603190034FF0A0319D3
:10031800FE0A7F293F3406345B344F3466346D342B
:100328007D3407347F346F3477347C3439345E3429
:10033800793471347608031DA229A329A529F60169
:10034800F60A7603031DA929AA29AB29F601080094
:04400E00D120FF3F7F
:00000001FF
