:020000040000FA
:060000000A128A110C280F
:10000800FE00030EF1000A08F2000A128A15F12A0E
:100018000A128A110F28F801F901FA0183135E30D8
:10002800840070300A128A15A1220A128A11A0309F
:100038008400D9300A128A15A1220A128A11830172
:100048000A128A15062C831203132D088039B20070
:100058003208B7002D08B2003207B3003308BD00DC
:10006800AC1F3728382839283D143D0803193D2886
:100078003E284D283D0A031D422843284B280030BE
:10008800AD000030AC000030AB000030AA00AC1767
:1000980055280030AD000030AC000030AB00003017
:1000A800AA0031088039B2003208B7063108B20018
:1000B8003207B3003308BC00B01F632864286528E2
:1000C8003C143C08031969286A2879283C0A031D4E
:1000D8006E286F2877280030B1000030B00000305B
:1000E800AF000030AE00B01781280030B1000030FA
:1000F800B0000030AF000030AE003C08031985287E
:1001080086288B283D08031D8A288B2894280030D0
:10011800AD000030AC000030AB000030AA00872BE7
:100128002A08B2003208F30030080A128A15B423EC
:100138000A128A11740883120313C3007308C200D9
:100148004208B200B301B401B5013508BB00340858
:10015800BA003308B9003208B8004308B200B30146
:10016800B401B5013508C1003408C0003308BF0028
:100178003208BE002B08B2003208F3002F080A121A
:100188008A15B4230A128A11740883120313C30050
:100198007308C2004208B200B301B401B5013208C5
:1001A800B807330803110318013E0319DC28B907FF
:1001B800340803110318013E0319E328BA07350868
:1001C80003110318013E0319EA28BB074308B200CC
:1001D800B301B401B5013208BE073308031103188F
:1001E800013E0319F828BF07340803110318013E1C
:1001F8000319FF28C007350803110318013E031926
:100208000629C1072C08B2003208F3002E080A128A
:100218008A15B4230A128A11740883120313C300BF
:100228007308C2004208B200B301B401B501320834
:10023800B807330803110318013E03192429B90725
:10024800340803110318013E03192B29BA0735088E
:1002580003110318013E03193229BB074308B200F2
:10026800B301B401B5013208BE07330803110318FE
:10027800013E03194029BF07340803110318013E42
:1002880003194729C007350803110318013E03194C
:100298004E29C1070830B2000310B80DB90DBA0DC8
:1002A800BB0DB20B50292B08B2003208F3002E0800
:1002B8000A128A15B4230A128A11740883120313C6
:1002C800C3007308C2004208B2004308B300B40177
:1002D800B5013208B807330803110318013E0319A2
:1002E8007629B907340803110318013E03197D293B
:1002F800BA07350803110318013E03198429BB07FF
:100308002A08B2003208F3002F080A128A15B4230B
:100318000A128A11740883120313C3007308C200F7
:100328004208B2004308B300B401B5013208B80767
:10033800330803110318013E0319A329B907340828
:1003480003110318013E0319AA29BA073508031136
:100358000318013E0319B129BB070830B200031086
:10036800B80DB90DBA0DBB0DB20BB3292A08B200EE
:100378003208F3002E080A128A15B4230A128A11C9
:10038800740883120313C3007308C2004208B20042
:100398004308B300B401B5013208B80733080311A4
:1003A8000318013E0319D929B907340803110318A2
:1003B800013E0319E029BA07350803110318013E65
:1003C8000319E729BB072B08B2003208F3003008ED
:1003D8000A128A15B4230A128A11740883120313A5
:1003E800C3007308C2004208B2004308B300B40156
:1003F800B5013208BE07330803110318013E03197B
:10040800062ABF07340803110318013E03190D2AF1
:10041800C007350803110318013E0319142AC10740
:100428002C08B2003208F3002F080A128A15B423E8
:100438000A128A11740883120313C3007308C200D6
:100448004208B2004308B300B401B5013208BE0740
:10045800330803110318013E0319332ABF07340870
:1004680003110318013E03193A2AC007350803117E
:100478000318013E0319412AC1072C08B2003208AB
:10048800F30030080A128A15B4230A128A11740874
:1004980083120313C3007308C2004208B200430862
:1004A800B300B401B50108300310B20DB30DB40D9B
:1004B800B50DFF3E031D582A3208BE073308031145
:1004C8000318013E0319692ABF07340803110318EA
:1004D800013E0319702AC007350803110318013EAD
:1004E8000319772AC1073808B2003908B3003A0857
:1004F800B4003B08B50018300310B50CB40CB30CAD
:10050800B20CFF3E031D802A3208BE0733080311D0
:100518000318013E0319912ABF0734080311031871
:10052800013E0319982AC007350803110318013E34
:1005380003199F2AC1070830B2000310B80DB90D7E
:10054800BA0DBB0DB20BA12A3D083C07B200B3019E
:10055800B30D3208823EC20033080318013EFF3E45
:10056800C300D32A0130B2000310BE0DBF0DC00D69
:10057800C10DB20BB82ABB1FC22AC32AC42A3E1413
:100588000130B2000310B80DB90DBA0DBB0DB20B96
:10059800C62AFF30C2070318C30AFF30C307C01FAB
:1005A800D62AD72AB62ABC01BB1FDB2ADC2AF82A9E
:1005B800FF303805B200FF303905B300FF303A0587
:1005C800B4007F303B05B5003508340433043204E9
:1005D8000319EF2AF02AF32ABC01BC0AF82A3E1CA8
:1005E800F62AF72AF82AF02A3C080319FC2AFD2AD9
:1005F8002E2B0130BE07003003180130BF07003032
:1006080003180130C007003003180130C107411C2E
:100618000E2B0F2B2E2B3E08B2003F08B3004008CC
:10062800B4004108B5000130B600350DB50CB40C66
:10063800B30CB20CB60B192B3508C1003408C00036
:100648003308BF003208BE000130C2070318C30ACE
:100658000030C3074308803AFF0080307F02031D43
:10066800372BFF304202031C3A2B3B2B462B7F30A3
:1006780083120313C1008030C0000030BF00003077
:10068800BE007B2B831203134308803AFF0080309F
:100698007F02031D512B013042020318542B552BA6
:1006A800612B003083120313C1000030C0000030FA
:1006B800BF000030BE00B7017B2B83120313420832
:1006C800B2003208BD00FF30BE05FF30BF057F30E5
:1006D800C0050030C1053D1C722B732B742BC0174D
:1006E8003D08B2000310320CB3003308C1003708CC
:1006F800B2003208C1044108AD004008AC003F0810
:10070800AB003E08AA000800831203131F083F39F4
:1007180040389F001F14831603139F131F129F1244
:100728000130F6008030F7000A128A158E230A126B
:100738008A11C73083160313D900A22BD90BA12B1A
:10074800A52BC330831203139F051F149F149F18F2
:10075800AE2BAF2BAB2B1E0883160313D9005908F9
:1007680083120313EF004330C7007F30C600003008
:10077800C5000030C4004030AD00A030AC000030EF
:10078800AB000030AA006F0883160313D900DA0102
:10079800DB01DC015C08F6005B08F5005A08F40090
:1007A8005908F30001300A128A11C3260A128A1165
:1007B800760883120313B1007508B0007408AF00FF
:1007C8007308AE000A128A1127200A128A118312AE
:1007D80003132D08CB002C08CA002B08C9002A08CF
:1007E800C8000A128A1523260A128A1183120313D3
:1007F800470883160313A7008312031346088316BA
:100808000313A60083120313450883160313A500D8
:1008180083120313440883160313A40027088312C2
:100828000313B10083160313260883120313B000C1
:1008380083160313250883120313AF0083160313CB
:10084800240883120313AE004230AD00C830AC0058
:100858000030AB000030AA000A128A1127200A12C1
:100868008A11831203132D08C7002C08C6002B0811
:10087800C5002A08C4000A128A117F270A128A11A1
:10088800831203134508ED004408EC000A30A40065
:100898000030A5006D08A7006C08A6000A128A158A
:1008A800ED240A128A11831203132508EB00240889
:1008B800EA006B08AD006A08AC000A30AE000030F0
:1008C800AF00D4300A128A1568230A128A110A3036
:1008D80083120313A4000030A5000A30F30000308F
:1008E800F4006D08F6006C08F5000A128A15482510
:1008F8000A128A11740883120313A7007308A6004A
:100908000A128A15ED240A128A1183120313250884
:10091800E9002408E8006908AD006808AC000A305E
:10092800AE000030AF00CF300A128A1568230A12D1
:100938008A110A3083120313A4000030A500643022
:10094800F3000030F4006D08F6006C08F5000A1298
:100958008A1548250A128A11740883120313A700FE
:100968007308A6000A128A15ED240A128A11831246
:1009780003132508E7002408E6006708AD006608A9
:10098800AC000A30AE000030AF00CA300A128A1537
:1009980068230A128A11CF30F3000030F400D430F3
:1009A80083160313D9005908F5000A128A1537244B
:1009B8000A128A11123083160313D9005908F3005A
:1009C800C5300A128A1547230A128A11C530F30066
:1009D8000030F400CF3083160313D9005908F5000E
:1009E8000A128A1537240A128A11CA30F300003015
:1009F800F400C53083160313D9005908F5000A120C
:100A08008A1537240A128A11C73083160313D900AE
:100A1800D90B0C2D831203131F08C33904389F0008
:100A28001F149F149F18192D1A2D162D1E08831692
:100A38000313D900590883120313EE004330C7008B
:100A48007F30C6000030C5000030C4004030AD0023
:100A5800A030AC000030AB000030AA006E0883164E
:100A68000313D900DA01DB01DC015C08F6005B083E
:100A7800F5005A08F4005908F30001300A128A11E7
:100A8800C3260A128A11760883120313B100750867
:100A9800B0007408AF007308AE000A128A1127204C
:100AA8000A128A11831203132D08CB002C08CA00DE
:100AB8002B08C9002A08C8000A128A1523260A1218
:100AC8008A1183120313470883160313A3008312A2
:100AD8000313460883160313A20083120313450861
:100AE80083160313A1008312031344088316031308
:100AF800A000230883120313B100831603132208EE
:100B080083120313B00083160313210883120313FF
:100B1800AF0083160313200883120313AE0042307C
:100B2800AD00C830AC000030AB000030AA000A129B
:100B38008A1127200A128A11831203132D08C7006D
:100B48002C08C6002B08C5002A08C4000A128A11FE
:100B58007F270A128A11831203134508E500440807
:100B6800E4000A30A4000030A5006508A700640866
:100B7800A6000A128A15ED240A128A118312031399
:100B88002508E3002408E2006308AD006208AC0011
:100B98000A30AE000030AF00BB300A128A15682355
:100BA8000A128A110A3083120313A4000030A50028
:100BB8000A30F3000030F4006508F6006408F50018
:100BC8000A128A1548250A128A1174088312031317
:100BD800A7007308A6000A128A15ED240A128A11C2
:100BE800831203132508E1002408E0006108AD0022
:100BF8006008AC000A30AE000030AF00B6300A1210
:100C08008A1568230A128A110A3083120313A40072
:100C18000030A5006430F3000030F4006508F600E9
:100C28006408F5000A128A1548250A128A11740800
:100C380083120313A7007308A6000A128A15ED246D
:100C48000A128A11831203132508DF002408DE0024
:100C58005F08AD005E08AC000A30AE000030AF009F
:100C6800B1300A128A1568230A128A11B630F300C5
:100C78000030F400BB3083160313D9005908F5007F
:100C88000A128A1537240A128A111230831603139E
:100C9800D9005908F300AC300A128A1547230A1202
:100CA8008A11AC30F3000030F400B6308316031319
:100CB800D9005908F5000A128A1537240A128A1130
:100CC800B130F3000030F400AC3083160313D900C0
:100CD8005908F5000A128A1537240A128A111230A7
:100CE80083160313D9005908F300C0300A128A1575
:100CF80047230A128A117808F3007908F400C030F3
:100D080083160313D9005908F5000A128A153724E7
:100D18000A128A11C0300A128A15B8220A128A11D8
:100D2800CA30F6000030F7000A128A158E230A121C
:100D38008A110F30F6008030F7000A128A158E23C8
:100D48000A128A11B130F6000030F7000A128A152B
:100D58008E230A128A110F30F6008030F7000A122B
:100D68008A158E230A128A117808F6007908F70086
:100D78000A128A158E230A128A119D2B08008312E3
:100D88000313A40024080319CA2ECB2EDF2EF61F46
:100D9800CE2ECF2EDF2E7309A6007409A700750981
:100DA800A8007609A900A60A0319A70A0319A80A20
:100DB8000319A90AE72E7608A9007508A80074087F
:100DC800A7007308A6007608750474047304031D4D
:100DD800EE2EEF2EF82E0030F6000030F500003031
:100DE800F4000030F3007E2F9630A0002008A50004
:100DF8000A2F0130A0002008A50701300310A90C14
:100E0800A80CA70CA60CFF3E031D022FFE302905D7
:100E1800031D0F2F102FFD2E2C2F0130A0002008AE
:100E2800A5070130A607003003180130A7070030D6
:100E380003180130A807003003180130A907013052
:100E48000310A90CA80CA70CA60CFF3E031D242F09
:100E5800FF302905031D312F322F112F3E2F01306E
:100E6800A5020130A0000310A60DA70DA80DA90D1D
:100E7800A00B372FA81B412F422F482F02302502E5
:100E88000318472F482F332F25184B2F4C2F542F3B
:100E9800FF30A605FF30A7057F30A805FF30A9055C
:100EA8000310A50C2508A000A101A201A301183078
:100EB8000310A00DA10DA20DA30DFF3E031D5C2F75
:100EC8002008A6042108A7042208A8042308A904C6
:100ED80024080319702F712F762FF61F742F752F82
:100EE800762FA9172908F6002808F5002708F40026
:100EF8002608F3000800031083120313460D470D5C
:100F0800C8004808CE004E08031D8B2F8C2F952F44
:100F18000030C7000030C6000030C5000030C400F3
:100F2800FA2F4408C8004508C9004608CA004708FF
:100F3800CB001F300310CB0CCA0CC90CC80CFF3EE9
:100F4800031D9E2F4808CC004C08CD00C617FF3063
:100F5800C405FF30C505FF30C6050030C70596300B
:100F6800CE02CE1FB82FB92FD32F4E08803A973E06
:100F78000318BF2FC02FC12F8C2F01300310C70CAF
:100F8800C60CC50CC40CFF3E031DC22F0130C8009F
:100F98004808CE07031DD12FD22FC12FEA2F2030AA
:100FA8004E02031CD82FD92FE52F8C2F0130C800F3
:100FB8000310C40DC50DC60DC70DC80BDC2F0130BD
:100FC800CE024E08031DE92FEA2FDA2F4D08031928
:100FD800EE2FEF2FFA2FC409C509C609C709C40A9D
:0E0FE8000319C50A0319C60A0319C70A08002F
:10100000FF1B0A2883137F1883170008840A03191B
:10101000FF0A080008308A000408840A82070034A6
:101020005334313420342034203420345334323497
:1010300020342034203453343334003456342034B4
:0610400000342E340034E0
:1015420064008001840A0406031900340406A22AF6
:101552008312031309152730F400F530F300F30B5F
:10156200B02AF40BB02A8312031309110800F50004
:101572000A128A15DD230A128A15750883120313CB
:101582008800091089100A128A15A9220A128A15DE
:101592000800F5000A128A15DD230A128A15750859
:1015A200831203138800091489100A128A15A922CA
:1015B2000A128A1508008B170B17831603138C1651
:1015C2000C16831203138C120C121730831603139A
:1015D2009900243098009030831203139800080079
:1015E200831203138C1EF62AF72A012B1A08F00025
:1015F2007008FA008C120A128A1527230A128A1519
:1016020072088A00710E8300FE0E7E0E09003830C9
:101612000A128A15B8220A128A150C300A128A1581
:10162200B8220A128A1501300A128A15B8220A1241
:101632008A1506300A128A15B8220A128A158030D3
:101642000A128A15B8220A128A1508002B307A0665
:10165200031D2C2B2D2B362B7808013EF800790820
:101662000318013E003EF900FA012D307A06031DEF
:101672003B2B3C2B452B7808FF3EF80079080318DA
:10168200013EFF3EF900FA01FA010800F600760871
:10169200F4007408F500552B0130F4007408F507C6
:1016A2000130F4007408F307730884000A128A15E3
:1016B2000A200A128A15F40075088400740883133C
:1016C20080000008031D662B672B4D2B0800831238
:1016D2000313B200AD1F6E2B6F2B7F2B2D30B0008A
:1016E200320884003008831380000130B0003008D3
:1016F200B207AC09AD09AC0A0319AD0A2D08A40062
:101702002C08A3002F08A6002E08A50032080A12F2
:101712008A15B1250A128A150800A32B7708FF0043
:10172200760884000A128A1500200A128A150A1203
:101732008A15CA220A128A150130F6070318F70A17
:101742000030F707770883120313FF00760884003E
:101752000A128A1500200A128A15003A031DB22BBA
:10176200B32B8F2B080083120313A400A001A10145
:101772007308F500F6017508A2007608A300241C80
:10178200C32BC42BCA2B2208A0070318A10A2308C3
:10179200A10701300310A20DA30DFF3E031DCB2BA9
:1017A2000310A40C2408031DD72BD82BC02B21080F
:1017B200F4002008F3000800FF30831203138800AE
:1017C2008030F30073088805091089140911273045
:1017D200F400F530F300F30BEC2BF40BEC2B83123B
:1017E2000313091580300806031DF82BF92B052C6D
:1017F20009112730F400F530F300F30BFE2BF40B44
:10180200FE2B8312031309150800831603130F0816
:101812008F3960388F008F110F118F100F14033022
:10182200831603178800890103308316031385008A
:1018320086018801870189018312031385018601CC
:101842008701880189010A128A1508230A128A155A
:101852000A128A1188230A128A150A128A15DC22B0
:101862000A128A15242C0A128A110C287308831270
:101872000313A0007408A100442C0130A007031830
:10188200A10A0030A107200884008317211C8313BA
:101892000008031D4D2C4E2C3E2C592C0130A00764
:1018A2000318A10A0030A1070130F6007608F507F7
:1018B2007508840083130008F6002008840083174B
:1018C200211C8313760880000008031D692C6A2CF2
:1018D2004F2C0800730874040319702C712CA22C6D
:1018E20083120313A001A00A812C01300310F30D0F
:1018F200F40DFF3E031D772C0130F7007708A00797
:10190200F41F842C852C762C74087602031D8B2CF4
:1019120073087502031C8E2C8F2C952C7308F5020C
:101922007408031CF603F60201300310F40CF30CE6
:10193200FF3E031D962C0130A002031DA12CA22CF8
:10194200852C7608F4007508F3000800831203134F
:10195200A101A201730874040319B02CB12CE82C64
:10196200A001A00ABF2C01300310F30DF40DFF3EBD
:10197200031DB52C0130F7007708A007F41FC22C15
:10198200C32CB42C01300310A10DA20DFF3E031D88
:10199200C42C74087602031DD02C73087502031C34
:1019A200D32CD42CDB2C7308F5027408031CF60329
:1019B200F602211401300310F40CF30CFF3E031D58
:1019C200DC2C0130A002031DE72CE82CC32C2208DA
:1019D200F4002108F300080083120313AA01A71FD1
:1019E200F32CF42CFB2CA609A709A60A0319A70AB3
:1019F200AA01AA0AA51FFE2CFF2C042DA409A509E1
:101A0200A40A0319A50A240825040319092D0A2D7D
:101A1200392DA901A90A182D01300310A40DA50D15
:101A2200FF3E031D0E2D0130A8002808A907A51F9F
:101A32001B2D1C2D0D2D25082702031D222D2408E8
:101A42002602031C252D262D2C2D2408A60225084E
:101A5200031CA703A70201300310A50CA40CFF3E30
:101A6200031D2D2D0130A902031D382D392D1C2DEA
:101A72002A0803193D2D3E2D432DA609A709A60AC2
:101A82000319A70A2708A5002608A4000800831244
:101A92000313A101F41F4E2D4F2D562DF309F40906
:101AA200F30A0319F40AA101A10AF61F592D5A2DAE
:101AB200632DF509F609F50A0319F60A0130F70054
:101AC2007708A106A201A3017308740403196A2D01
:101AD2006B2DA22DA001A00A792D01300310F30D68
:101AE200F40DFF3E031D6F2D0130F7007708A007AC
:101AF200F41F7C2D7D2D6E2D01300310A20DA30D40
:101B0200FF3E031D7E2D74087602031D8A2D730885
:101B12007502031C8D2D8E2D952D7308F502740808
:101B2200031CF603F602221401300310F40CF30C2A
:101B3200FF3E031D962D0130A002031DA12DA22DF3
:101B42007D2D21080319A62DA72DAC2DA209A309CD
:101B5200A20A0319A30A2308F4002208F3000800CA
:101B620083120313AB002408A9002308A800260847
:101B7200F4002508F3002908F6002808F5000A12E7
:101B82008A15A7240A128A15740883120313A9005E
:101B92007308A8000130A7002708AB07280829040A
:101BA200031DD42DD52DB82D2B088400831380015D
:101BB2000130AB022608F4002508F3002408F600E1
:101BC2002308F5000A128A156B240A128A15730873
:101BD20083120313A7002708AA002608F400250889
:101BE200F3002408F6002308F5000A128A15A72438
:101BF2000A128A15740883120313A4007308A3003F
:101C02000A302A02031C062E072E0B2E0730A700CD
:101C12002708AA073030A7002708AA072A08A70022
:101C22002B0884002708831380000130AB022308AD
:101C32002404031D1D2E1E2EDB2D0130A7002708B4
:101C4200AB070800831203134B088039CC004C0801
:101C5200D5004B08CC004C07CD004D08DC00CA1F54
:101C6200332E342E352E5C145C080319392E3A2E8D
:101C72004A2E5C0A031D3E2E3F2E472E0030CB001B
:101C82000030CA000030C9000030C800CA17CB01BA
:101C9200522E0030CB000030CA000030C9000030A4
:101CA200C80047088039CC004C08D5064708CC004C
:101CB2004C07CD004D08DD00C61F602E612E622E3E
:101CC2005D145D080319662E672E772E5D0A031DCB
:101CD2006B2E6C2E742E0030C7000030C600003010
:101CE200C5000030C400C617C7017F2E0030C700F0
:101CF2000030C6000030C5000030C400470846046A
:101D020045044404031D862E872EA02E0030CB00EE
:101D12000030CA000030C9000030C8008030CA0458
:101D22007F30CB045508CC004C08CB044B08C700CD
:101D32004A08C6004908C5004808C400FF2F5C08CD
:101D4200031DA42EA52EAE2E0030C7000030C60003
:101D52000030C5000030C400FF2F5C08CC00CD016C
:101D62004D08CF005D084C02CE00031CCF034E0885
:101D72007F3ED6004F080318013E003ED7004B08B5
:101D8200D4004A08D3004908D2004808D1000030E4
:101D9200CB000030CA000030C9000030C80000305B
:101DA200DB000030DA000030D9000030D800DD015D
:101DB200242F5D080319DE2EDF2EFF2E0130CC000A
:101DC2000310D10DD20DD30DD40DCC0BE12E013069
:101DD200CC000310C80DC90DCA0DCB0DCC0BEA2ED9
:101DE200DB1FF42EF52EF62E48140130CC00031022
:101DF200D80DD90DDA0DDB0DCC0BF82E47085402A5
:101E0200031D0D2F46085302031D0D2F45085202D4
:101E1200031D0D2F44085102031C102F112F202FD8
:101E22005B174408D1024508031C450FD20246083D
:101E3200031C460FD3024708031C470FD40201308C
:101E4200CC004C08DD071A305D02031C292F2A2F13
:101E5200DA2E54085304520451040319312F322F3D
:101E6200512F5814512F0130CC000310C80DC90D49
:101E7200CA0DCB0DCC0B362FDB1F402F412F422F2B
:101E820048140130CC000310D80DD90DDA0DDB0D4A
:101E9200CC0B442FFF30D6070318D70AFF30D707E1
:101EA200CA1F542F552F342FDD01DB1F592F5A2FF4
:101EB200762FFF305805CC00FF305905CD00FF309A
:101EC2005A05CE007F305B05CF004F084E044D040B
:101ED2004C0403196D2F6E2F712FDD01DD0A762F51
:101EE200481C742F752F762F6E2F5D0803197A2FD9
:101EF2007B2FAC2F0130C807003003180130C9070F
:101F0200003003180130CA07003003180130CB0734
:101F12004B1C8C2F8D2FAC2F4808CC004908CD00CC
:101F22004A08CE004B08CF000130D0004F0DCF0C35
:101F3200CE0CCD0CCC0CD00B972F4F08CB004E08FB
:101F4200CA004D08C9004C08C8000130D607031862
:101F5200D70A0030D7075708803AFF0080307F0247
:101F6200031DB52FFF305602031CB82FB92FC72F00
:101F7200FF3083120313D6000030D7000030CB00AD
:101F82000030CA000030C9000030C80083120313B9
:101F92005708803AFF0080307F02031DD22F0130A4
:101FA20056020318D52FD62FE32F83120313D6011F
:101FB200D7010030CB000030CA000030C900003029
:101FC200C800D501831203135608CC004C08DC006C
:101FD2005C1CEC2FED2FEF2FCA17F32F7F30CC00B4
:101FE2004C08CA055C08CC0003104C0CCD004D080F
:0E1FF200CB005508CC004C08CB04972E0800FD
:04400E00D420FF3F7C
:00000001FF
