:020000040000FA
:060000000A128A110C280F
:10000800FE00030EF2000A08F3000A128A153329CB
:100018000A128A110F28F601F701F801F901831372
:100028006230840070300A128A11F6270A128A1187
:10003800A0308400E2300A128A11F6270A128A11C7
:1000480083010A128A11B02F0A168A11A1270A12EF
:100058008A11831203131F083F3940389F001F1469
:10006800831603139F131F129F120B30831203135F
:10007800A1008030A2000A128A15B9200A128A113A
:100088000D3083160313E300FB30E200E20B4A282D
:10009800E30B4A28C330831203139F051F149F14D0
:1000A8009F185728582854281E0883160313E2005F
:1000B800620883120313EF004330CB007F30CA007D
:1000C8000030C9000030C8004030B100A030B00096
:1000D8000030AF000030AE006F0883160313E20053
:1000E800E301E401E501650883120313A300831605
:1000F8000313640883120313A2008316031363080F
:1001080083120313A10083160313620883120313D7
:10011800A00001300A128A11F4260A128A118312E9
:1001280003132308B5002208B4002108B3002008EF
:10013800B2000A128A1193230A128A118312031336
:100148003108CF003008CE002F08CD002E08CC0093
:100158000A128A1523260A128A11831203134B08DE
:1001680083160313AC00831203134A088316031380
:10017800AB0083120313490883160313AA008312E2
:100188000313480883160313A9002C0883120313CA
:10019800B500831603132B0883120313B4008316C8
:1001A80003132A0883120313B300831603132908C1
:1001B80083120313B2004230B100C830B0000030DF
:1001C800AF000030AE000A128A1193230A128A1176
:1001D800831203133108CB003008CA002F08C90066
:1001E8002E08C8000A128A15A5230A128A1183123A
:1001F80003134908ED004808EC000A30A800003055
:10020800A9006D08AB006C08AA000A128A150A2218
:100218000A128A11831203132908EB002808EA003E
:100228006B08B6006A08B5000A30B7000030B8009D
:10023800DD300A128A1593200A128A110A308312B5
:100248000313A8000030A9000A30A0000030A10064
:100258006D08A3006C08A2000A128A15CA220A12A5
:100268008A11831203132108AB002008AA000A127E
:100278008A150A220A128A11831203132908E9002F
:100288002808E8006908B6006808B5000A30B70011
:100298000030B800D8300A128A1593200A128A1141
:1002A8000A3083120313A8000030A9006430A000AC
:1002B8000030A1006D08A3006C08A2000A128A157C
:1002C800CA220A128A11831203132108AB002008DC
:1002D800AA000A128A150A220A128A118312031323
:1002E8002908E7002808E6006708B6006608B50090
:1002F8000A30B7000030B800D3300A128A159320AC
:100308000A128A11DD3083160313E2006208F40032
:10031800D8300A128A155D210A128A1125308316EF
:100328000313E2006208F400CE300A168A11DD27B2
:100338000A128A11D83083160313E2006208F40007
:10034800CE300A128A155D210A128A11CE30831620
:100358000313E2006208F400D3300A128A155D2103
:100368000A128A110D3083160313E300FB30E200F2
:10037800E20BBC29E30BBC29831203131F08C33902
:1003880004389F001F149F149F18CB29CC29C82913
:100398001E0883160313E200620883120313EE009B
:1003A8004330CB007F30CA000030C9000030C8009D
:1003B8004030B100A030B0000030AF000030AE00D7
:1003C8006E0883160313E200E301E401E501650802
:1003D80083120313A3008316031364088312031301
:1003E800A20083160313630883120313A100831664
:1003F8000313620883120313A00001300A128A1142
:10040800F4260A128A11831203132308B50022085E
:10041800B4002108B3002008B2000A128A119323FD
:100428000A128A11831203133108CF003008CE0054
:100438002F08CD002E08CC000A128A1523260A128E
:100448008A11831203134B0883160313A80083121F
:1004580003134A0883160313A700831203134908DA
:1004680083160313A6008312031348088316031385
:10047800A500280883120313B50083160313270861
:1004880083120313B400831603132608831203137D
:10049800B30083160313250883120313B2004230F6
:1004A800B100C830B0000030AF000030AE000A1212
:1004B8008A1193230A128A11831203133108CB007D
:1004C8003008CA002F08C9002E08C8000A128A1569
:1004D800A5230A128A11831203134908E500480864
:1004E800E4000A30A8000030A9006508AB006408E1
:1004F800AA000A128A150A220A128A118312031301
:100508002908E3002808E2006308B6006208B5007D
:100518000A30B7000030B800C9300A128A15932093
:100528000A128A110A3083120313A8000030A900A6
:100538000A30A0000030A1006508A3006408A200EA
:100548000A128A15CA220A128A1183120313210871
:10055800AB002008AA000A128A150A220A128A1178
:1005680083120313290883160313B4008312031399
:10057800280883160313B300340883120313B60044
:1005880083160313330883120313B5000A30B70028
:100598000030B800C4300A128A1593200A128A1152
:1005A8000A3083120313A8000030A9006430A000A9
:1005B8000030A1006508A3006408A2000A128A1589
:1005C800CA220A128A11831203132108AB002008D9
:1005D800AA000A128A150A220A128A118312031320
:1005E800290883160313B2008312031328088316FD
:1005F8000313B100320883120313B60083160313E2
:10060800310883120313B5000A30B7000030B80070
:10061800BF300A128A1593200A128A11C93083162C
:100628000313E2006208F400C4300A128A155D213F
:100638000A128A11253083160313E2006208F400B7
:10064800BA300A168A11DD270A128A11C4308316B5
:100658000313E2006208F400BA300A128A155D2119
:100668000A128A11BA3083160313E2006208F400F2
:10067800BF300A128A155D210A128A111D308316AD
:100688000313E200620883120313AC007908AE007A
:100698007808AD00B5300A128A15BE240A128A11EC
:1006A800C0300A168A1162270A128A11D3308312BF
:1006B8000313A1000030A2000A128A15B9200A12F9
:1006C8008A11223083120313A1008030A2000A127B
:1006D8008A15B9200A128A11BF3083120313A100A8
:1006E8000030A2000A128A15B9200A128A11223093
:1006F80083120313A1008030A2000A128A15B920C0
:100708000A128A11B53083120313A1000030A20027
:100718000A128A15B9200A128A114428080083127D
:10072800031331088039B6003608BB003108B6001B
:100738003607B7003708C100B01FA32BA42BA52B81
:10074800411441080319A92BAA2BB92B410A031DEF
:10075800AE2BAF2BB72B0030B1000030B00000300B
:10076800AF000030AE00B017C12B0030B100003030
:10077800B0000030AF000030AE0035088039B60058
:100788003608BB063508B6003607B7003708BC0080
:10079800B41FCF2BD02BD12B3C143C080319D52BDD
:1007A800D62BE52B3C0A031DDA2BDB2BE32B003081
:1007B800B5000030B4000030B3000030B200B41708
:1007C800ED2B0030B5000030B4000030B30000302D
:1007D800B2003C080319F12BF22BF72B4108031D3B
:1007E800F62BF72B002C0030B1000030B0000030A1
:1007F800AF000030AE00F32E2E08B6003608F40025
:1008080034080A128A15E1200A128A11750883121F
:100818000313C7007408C6004608B600B701B8013C
:10082800B9013908C0003808BF003708BE003608CB
:10083800BD004708B600B701B801B9013908C500BD
:100848003808C4003708C3003608C2002F08B600AD
:100858003608F40033080A128A15E1200A128A11B0
:10086800750883120313C7007408C6004608B6004B
:10087800B701B801B9013608BD07370803110318D5
:10088800013E0319482CBE07380803110318013E1E
:1008980003194F2CBF07390803110318013E031928
:1008A800562CC0074708B600B701B801B901360889
:1008B800C207370803110318013E0319642CC30744
:1008C800380803110318013E03196B2CC4073908B3
:1008D80003110318013E0319722CC5073008B6002E
:1008E8003608F40032080A128A15E1200A128A1121
:1008F800750883120313C7007408C6004608B600BB
:10090800B701B801B9013608BD0737080311031844
:10091800013E0319902CBE07380803110318013E45
:100928000319972CBF07390803110318013E03194F
:100938009E2CC0074708B600B701B801B9013608B0
:10094800C207370803110318013E0319AC2CC3076B
:10095800380803110318013E0319B32CC4073908DA
:1009680003110318013E0319BA2CC5070830B60055
:100978000310BD0DBE0DBF0DC00DB60BBC2C2F084E
:10098800B6003608F40032080A128A15E1200A1265
:100998008A11750883120313C7007408C600460835
:1009A800B6004708B700B801B9013608BD073708CF
:1009B80003110318013E0319E22CBE07380803117E
:1009C8000318013E0319E92CBF073908031103185E
:1009D800013E0319F02CC0072E08B6003608F400B3
:1009E80033080A128A15E1200A128A11750883123F
:1009F8000313C7007408C6004608B6004708B700C6
:100A0800B801B9013608BD07370803110318013EBC
:100A180003190F2DBE07380803110318013E0319E7
:100A2800162DBF07390803110318013E03191D2DA0
:100A3800C0070830B6000310BD0DBE0DBF0DC00DB8
:100A4800B60B1F2D2E08B6003608F40032080A121D
:100A58008A15E1200A128A11750883120313C70048
:100A68007408C6004608B6004708B700B801B901BF
:100A78003608BD07370803110318013E0319452D31
:100A8800BE07380803110318013E03194C2DBF0790
:100A9800390803110318013E0319532DC0072F0805
:100AA800B6003608F40034080A128A15E1200A1242
:100AB8008A11750883120313C7007408C600460814
:100AC800B6004708B700B801B9013608C2073708A9
:100AD80003110318013E0319722DC30738080311C7
:100AE8000318013E0319792DC407390803110318A7
:100AF800013E0319802DC5073008B6003608F400FA
:100B080033080A128A15E1200A128A11750883121D
:100B18000313C7007408C6004608B6004708B700A4
:100B2800B801B9013608C207370803110318013E96
:100B380003199F2DC307380803110318013E031931
:100B4800A62DC407390803110318013E0319AD2D5A
:100B5800C5073008B6003608F40034080A128A15AA
:100B6800E1200A128A11750883120313C70074085A
:100B7800C6004608B6004708B700B801B9010830F2
:100B88000310B60DB70DB80DB90DFF3E031DC42DEA
:100B98003608C207370803110318013E0319D52D7B
:100BA800C307380803110318013E0319DC2DC407D5
:100BB800390803110318013E0319E32DC5073D0841
:100BC800B6003E08B7003F08B8004008B900183022
:100BD8000310B90CB80CB70CB60CFF3E031DEC2D76
:100BE8003608C207370803110318013E0319FD2D03
:100BF800C307380803110318013E0319042EC4075C
:100C0800390803110318013E03190B2EC5070830D4
:100C1800B6000310BD0DBE0DBF0DC00DB60B0D2ED9
:100C280041083C07B600B701B70D3608823EC6003A
:100C380037080318013EFF3EC7003F2E0130B600BB
:100C48000310C20DC30DC40DC50DB60B242EC01F55
:100C58002E2E2F2E302E42140130B6000310BD0D5B
:100C6800BE0DBF0DC00DB60B322EFF30C6070318E0
:100C7800C70AFF30C707C41F422E432E222EBC01CD
:100C8800C01F472E482E642EFF303D05B600FF30AA
:100C98003E05B700FF303F05B8007F304005B9007A
:100CA800390838043704360403195B2E5C2E5F2E8E
:100CB800BC01BC0A642E421C622E632E642E5C2E7C
:100CC8003C080319682E692E9A2E0130C20700309D
:100CD80003180130C307003003180130C40700307F
:100CE80003180130C507451C7A2E7B2E9A2E420820
:100CF800B6004308B7004408B8004508B9000130F9
:100D0800BA00390DB90CB80CB70CB60CBA0B852E55
:100D18003908C5003808C4003708C3003608C200BF
:100D28000130C6070318C70A0030C7074708803ACA
:100D3800FF0080307F02031DA32EFF304602031CF4
:100D4800A62EA72EB22E7F3083120313C500803043
:100D5800C4000030C3000030C200E72E8312031322
:100D68004708803AFF0080307F02031DBD2E013006
:100D780046020318C02EC12ECD2E00308312031355
:100D8800C5000030C4000030C3000030C200BB0101
:100D9800E72E831203134608B6003608C100FF3059
:100DA800C205FF30C3057F30C4050030C505411CAE
:100DB800DE2EDF2EE02EC4174108B6000310360CD5
:100DC800B7003708C5003B08B6003608C504450813
:100DD800B1004408B0004308AF004208AE00080064
:100DE80083120313A80028080319FB2EFC2E102FCA
:100DF800A31FFF2E002F102F2009AA002109AB00E6
:100E08002209AC002309AD00AA0A0319AB0A031989
:100E1800AC0A0319AD0A182F2308AD002208AC004C
:100E28002108AB002008AA0023082204210420047A
:100E3800031D1F2F202F292F0030A3000030A200F0
:100E48000030A1000030A000AF2F9630A400240885
:100E5800A9003B2F0130A4002408A9070130031082
:100E6800AD0CAC0CAB0CAA0CFF3E031D332FFE30AF
:100E78002D05031D402F412F2E2F5D2F0130A4007B
:100E88002408A9070130AA07003003180130AB076E
:100E9800003003180130AC07003003180130AD07EB
:100EA80001300310AD0CAC0CAB0CAA0CFF3E031DBB
:100EB800552FFF302D05031D622F632F422F6F2FF3
:100EC8000130A9020130A4000310AA0DAB0DAC0D2E
:100ED800AD0DA40B682FAC1B722F732F792F023026
:100EE80029020318782F792F642F29187C2F7D2F3A
:100EF800852FFF30AA05FF30AB057F30AC05FF30EA
:100F0800AD050310A90C2908A400A501A601A70195
:100F180018300310A40DA50DA60DA70DFF3E031D47
:100F28008D2F2408AA042508AB042608AC0427083A
:100F3800AD0428080319A12FA22FA72FA31FA52F9F
:100F4800A62FA72FAD172D08A3002C08A2002B0849
:100F5800A1002A08A0000800831603130F088F3980
:100F680060388F008F110F118F100F140330831604
:100F7800031788008901033083160313850086014F
:100F88008801803087008901831203138501860157
:100F98008701880189010A168A11BE270A128A1157
:100FA8000A128A1128200A128A11003083120313A8
:100FB800B1000030B0002530AF008030AE000A121A
:100FC8008A1565220A128A110A168A11A1270A129D
:100FD8008A110A128A156E200A128A11CF2F0A1254
:100FE8008A110C2864008001840A0406031900345D
:040FF8000406F72FC5
:10100000FF1B0A2883137F1883170008840A03191B
:10101000FF0A080008308A000408840A82070034A6
:10102000013400340A34003464340034E8340334C6
:1010300010342734533431343A34203420342034BB
:101040002034533432343A342034203420342034A1
:10105000533433343A34003425342E343134693443
:0C10600000345634203400342E340034A8
:10106E00F500F4013A30750203183E283F28472850
:10107E0030307502031C442845284728F401F40A31
:10108E00740C08002B3076067704031D4F28502869
:10109E0059287808013EF80079080318013E003EF1
:1010AE00F9006D282D3076067704031D5F28602821
:1010BE0069287808FF3EF80079080318013EFF3EC4
:1010CE00F9006D284730F6000030F70008002B308D
:1010DE0076067704031D742875287E287808013E4D
:1010EE00F80079080318013E003EF90092282D30D1
:1010FE0076067704031D842885288E287808FF3EFF
:10110E00F80079080318013EFF3EF9009228473097
:10111E00F6000030F700080083120313BB00B61F61
:10112E0099289A28AA282D30B9003B08840039083E
:10113E00831380000130B9003908BB07B509B60921
:10114E00B50A0319B60A3608AD003508AC003808E2
:10115E00AF003708AE003B080A128A1533230A1275
:10116E008A150800D0282208FF00210884000A12E0
:10117E008A1500200A128A150A168A1176270A1273
:10118E008A15013083120313A1070318A20A003037
:10119E00A207831203132208FF00210884000A12FB
:1011AE008A1500200A128A15003A031DDF28E0284E
:1011BE00BA28080083120313A600A201A301740823
:1011CE00A000A1012008A4002108A500261CF028DB
:1011DE00F128F7282408A2070318A30A2508A30755
:1011EE0001300310A40DA50DFF3E031DF8280310BA
:1011FE00A60C2608031D04290529ED282308F50051
:10120E002208F4000800FF30831203138800803098
:10121E00F400740888050910891409112730F500A7
:10122E00F530F400F40B1929F50B19298312031369
:10123E00091580300806031D252926293229091192
:10124E002730F500F530F400F40B2B29F50B2B2984
:10125E008312031309150800831203138C1E3829F9
:10126E00392949291A08F000F1017008F6007108B1
:10127E00F7000A128A1549200A128A1583120313DF
:10128E008C12562918120D30F100FB30F000F00BC5
:10129E004E29F10B4E295329831203131816730886
:1012AE008A00720E8300FE0E7E0E09008312031357
:1012BE00A0002008F5007508A10069290130F5008D
:1012CE007508A1072108840083130008031D7029E7
:1012DE00712965297A290130F5007508A1070130B9
:1012EE00F5007508F407740884000008F50021085D
:1012FE008400750880000008031D8629872972293D
:10130E000800831203132708280403198F29902934
:10131E00BF29AB01AB0A9E2901300310A70DA80D02
:10132E00FF3E031D94290130F5007508AB07A81F79
:10133E00A129A229932928082A02031DA8292708D2
:10134E002902031CAB29AC29B2292708A9022808B7
:10135E00031CAA03AA0201300310A80CA70CFF3E1F
:10136E00031DB3290130AB02031DBE29BF29A229DB
:10137E002A08A8002908A700080083120313A50154
:10138E00A601200821040319CD29CE29052AA4017E
:10139E00A40ADC2901300310A00DA10DFF3E031D90
:1013AE00D2290130F4007408A407A11FDF29E02917
:1013BE00D12901300310A50DA60DFF3E031DE12915
:1013CE0021082302031DED2920082202031CF02907
:1013DE00F129F8292008A2022108031CA303A30265
:1013EE00251401300310A10CA00CFF3E031DF9299A
:1013FE000130A402031D042A052AE0292608A100B3
:10140E002508A000080083120313AD01AB1F102A9C
:10141E00112A182AAA09AB09AA0A0319AB0AAD01A7
:10142E00AD0AA91F1B2A1C2A212AA809A909A80A44
:10143E000319A90A280829040319262A272A562A35
:10144E00AC01AC0A352A01300310A80DA90DFF3EE0
:10145E00031D2B2A0130F5007508AC07A91F382A89
:10146E00392A2A2A29082B02031D3F2A28082A0274
:10147E00031C422A432A492A2808AA022908031CC7
:10148E00AB03AB0201300310A90CA80CFF3E031DE9
:10149E004A2A0130AC02031D552A562A392A2D0834
:1014AE0003195A2A5B2A602AAA09AB09AA0A031948
:1014BE00AB0A2B08A9002A08A80008008312031300
:1014CE002E08B2002F08B3003008B4003108B50062
:1014DE0004300310B20DB30DB40DB50DFF3E031D58
:1014EE00702A3508A3003408A2003308A100320880
:1014FE00A0002E08B6002F08B7003008B80031083B
:10150E00B90004300310B60DB70DB80DB90DFF3E7E
:10151E00031D892A0030BA001230BB007A30BC009D
:10152E000030BD003608BA023708031C370FA02A58
:10153E00A12ABB023808031C380FA62AA72ABC0210
:10154E003908031C390FAC2AAD2ABD023D08A7008D
:10155E003C08A6003B08A5003A08A4000A128A150A
:10156E0021240A128A1583120313200883160313EB
:10157E0099001815981618121813831203131816BB
:10158E0098171813080083120313A501A11FD02A60
:10159E00D12AD82AA009A109A00A0319A10AA501D6
:1015AE00A50AA31FDB2ADC2AE52AA209A309A20A9F
:1015BE000319A30A0130F4007408A506A601A701B9
:1015CE00200821040319EC2AED2A242BA401A40AD5
:1015DE00FB2A01300310A00DA10DFF3E031DF12AC1
:1015EE000130F4007408A407A11FFE2AFF2AF02A76
:1015FE0001300310A60DA70DFF3E031D002B210881
:10160E002302031D0C2B20082202031C0F2B102B70
:10161E00172B2008A2022108031CA303A3022614E1
:10162E0001300310A10CA00CFF3E031D182B01303E
:10163E00A402031D232B242BFF2A25080319282B74
:10164E00292B2E2BA609A709A60A0319A70A2708D4
:10165E00A1002608A000080083120313B4002D0871
:10166E00B2002C08B1002F08A1002E08A0003208ED
:10167E00A3003108A2000A128A15C4210A128A1583
:10168E00831203132108B2002008B1000130B0000C
:10169E003008B40731083204031D562B572B3A2B52
:1016AE0034088400831380010130B4022F08A8008F
:1016BE002E08A7002D08AA002C08A9000A128A15C8
:1016CE0088210A128A15831203132708B0003008E6
:1016DE00B3002F08A1002E08A0002D08A3002C088F
:1016EE00A2000A128A15C4210A128A158312031344
:1016FE002108AD002008AC000A303302031C882BF1
:10170E00892B8D2B0730B0003008B3073030B00076
:10171E003008B3073308B000340884003008831350
:10172E0080000130B4022C082D04031D9F2BA02B2A
:10173E005D2B0130B0003008B4070800031083128F
:10174E0003134A0D4B0DCC004C08D2005208031D5A
:10175E00B12BB22BBB2B0030CB000030CA000030B7
:10176E00C9000030C800202C4808CC004908CD0024
:10177E004A08CE004B08CF001F300310CF0CCE0C02
:10178E00CD0CCC0CFF3E031DC42B4C08D0005008D2
:10179E00D100CA17FF30C805FF30C905FF30CA0592
:1017AE000030CB059630D202D21FDE2BDF2BF92B69
:1017BE005208803A973E0318E52BE62BE72BB22B07
:1017CE0001300310CB0CCA0CC90CC80CFF3E031D14
:1017DE00E82B0130CC004C08D207031DF72BF82B59
:1017EE00E72B102C20305202031CFE2BFF2B0B2C50
:1017FE00B22B0130CC000310C80DC90DCA0DCB0D94
:10180E00CC0B022C0130D2025208031D0F2C102CCF
:10181E00002C51080319142C152C202CC809C909A9
:10182E00CA09CB09C80A0319C90A0319CA0A031936
:10183E00CB0A080083120313A901A31F272C282CFF
:10184E00352CA009A109A209A309A00A0319A10A0E
:10185E000319A20A0319A30AA901A90AA71F382C62
:10186E00392C482CA409A509A609A709A40A03190D
:10187E00A50A0319A60A0319A70A0130F400740871
:10188E00A9060030AD000030AC000030AB000030D7
:10189E00AA0023082204210420040319572C582CD3
:1018AE00A52CA801A80A682C0130F4000310A00D85
:1018BE00A10DA20DA30DF40B5D2C0130F4007408E4
:1018CE00A807A31F6B2C6C2C5B2C0130F4000310AB
:1018DE00AA0DAB0DAC0DAD0DF40B6E2C230827022B
:1018EE00031D832C22082602031D832C21082502AA
:1018FE00031D832C20082402031C862C872C962C77
:10190E002008A4022108031C210FA5022208031C93
:10191E00220FA6022308031C230FA7022A1401304C
:10192E000310A30CA20CA10CA00CFF3E031D972CC0
:10193E000130A802031DA42CA52C6C2C2908031918
:10194E00A92CAA2CB52CAA09AB09AC09AD09AA0A77
:10195E000319AB0A0319AC0A0319AD0A2D08A3002B
:10196E002C08A2002B08A1002A08A0000800831250
:10197E000313B4002D30AF002F08B2000C2E25300B
:10198E0038060319CB2CCC2CD82C3808AF003408D1
:10199E0084002F08831380000130AF002F08B40796
:1019AE000C2EB3012C0884000A128A150A200A1282
:1019BE008A152E3A031DE42CE52C1C2D0130AF00A8
:1019CE002F08AC07B7010B2D831203133708AF0096
:1019DE002F08F4000A300A168A118A270A128A156D
:1019EE0083120313B0003008B7002C0884000A12CB
:1019FE008A150A200A128A15D03EAF002F08B707A3
:101A0E000130AF002F08AC072C0884000A128A158B
:101A1E000A200A128A150A128A1537200A128A1506
:101A2E0003181A2D1B2DEB2C1D2DB701013083121F
:101A3E000313AC07FF302C0784000A128A150A2004
:101A4E000A128A15B800AF00B0013008003A031927
:101A5E00312D0C2E2F08003A03191E2E643A03194D
:101A6E003C2D0D3A03193C2D0C2E320884008313A5
:101A7E000008B500840A0008B6000230AF002F0837
:101A8E00B207B61F4B2D4C2D552D0330AF002F082E
:101A9E00B304B509B609B50A0319B60A3708031D0A
:101AAE00592D5A2D642D35083604031D5F2D602DDA
:101ABE00642D0130AF002F08B707B801B80A3808F7
:101ACE00AF002F07013E84000A128A150A200A125F
:101ADE008A15B0000A128A150A200A128A15B10058
:101AEE0031083602031D7D2D300835020318802D76
:101AFE00812D822D8C2D0130AF002F08B8070530B7
:101B0E003806031D8B2D8C2D662D3708AF00B001C6
:101B1E00AF1BB0033008803A803C031D982D2F0870
:101B2E00380203189B2D9C2D9D2DB72D8312031368
:101B3E003708AF00B001AF1BB0033008803AB100D8
:101B4E0080303102031DAD2D38082F020318B02D41
:101B5E00B12DB72D831203133808AF002F08B7002D
:101B6E0083120313330803390319BE2DBF2D032E21
:101B7E002D30AF00340884002F088313800001300D
:101B8E00AF002F08B407032E0A30A7000030A800BC
:101B9E003708AF002F07013E84000A128A150A206B
:101BAE000A128A15A0000A128A150A200A128A152C
:101BBE00A1003608A3003508A2000A128A15C42116
:101BCE000A128A15831203132108AA002008A900FD
:101BDE000A128A1588210A128A15831203132708FE
:101BEE00303EB0003008B8003808AF00340884002A
:101BFE002F0883138000C62DFF30AF002F08B707C4
:101C0E00370A031D0B2E0C2ECB2D0130AC07FF30E7
:101C1E002C0784000A128A150A200A128A15AF00B0
:101C2E002F08B8003808031D1D2E1E2EC62C340892
:101C3E008400831380010800831203134F08803938
:101C4E00D0005008D9004F08D0005007D1005108DD
:101C5E00E000CE1F332E342E352E6014600803198B
:101C6E00392E3A2E4A2E600A031D3E2E3F2E472E47
:101C7E000030CF000030CE000030CD000030CC0060
:101C8E00CE17CF01522E0030CF000030CE000030E4
:101C9E00CD000030CC004B088039D0005008D9065A
:101CAE004B08D0005007D1005108E100CA1F602E2A
:101CBE00612E622E611461080319662E672E772E2F
:101CCE00610A031D6B2E6C2E742E0030CB0000307B
:101CDE00CA000030C9000030C800CA17CB017F2EE1
:101CEE000030CB000030CA000030C9000030C80000
:101CFE004B084A0449044804031D862E872EA02E45
:101D0E000030CF000030CE000030CD000030CC00CF
:101D1E008030CE047F30CF045908D0005008CF0455
:101D2E004F08CB004E08CA004D08C9004C08C80029
:101D3E00FF2F6008031DA42EA52EAE2E0030CB0063
:101D4E000030CA000030C9000030C800FF2F600804
:101D5E00D000D1015108D30061085002D200031CFB
:101D6E00D30352087F3EDA0053080318013E003EAB
:101D7E00DB004F08D8004E08D7004D08D6004C089F
:101D8E00D5000030CF000030CE000030CD00003046
:101D9E00CC000030DF000030DE000030DD0000300F
:101DAE00DC00E101242F61080319DE2EDF2EFF2E49
:101DBE000130D0000310D50DD60DD70DD80DD00B98
:101DCE00E12E0130D0000310CC0DCD0DCE0DCF0D78
:101DDE00D00BEA2EDF1FF42EF52EF62E4C1401300A
:101DEE00D0000310DC0DDD0DDE0DDF0DD00BF82E57
:101DFE004B085802031D0D2F4A085702031D0D2FC5
:101E0E0049085602031D0D2F48085502031C102FBA
:101E1E00112F202F5F174808D5024908031C490FC0
:101E2E00D6024A08031C4A0FD7024B08031C4B0F5D
:101E3E00D8020130D0005008E1071A306102031CAD
:101E4E00292F2A2FDA2E5808570456045504031941
:101E5E00312F322F512F5C14512F0130D00003102F
:101E6E00CC0DCD0DCE0DCF0DD00B362FDF1F402F4D
:101E7E00412F422F4C140130D0000310DC0DDD0D2C
:101E8E00DE0DDF0DD00B442FFF30DA070318DB0A0F
:101E9E00FF30DB07CE1F542F552F342FE101DF1FEC
:101EAE00592F5A2F762FFF305C05D000FF305D057D
:101EBE00D100FF305E05D2007F305F05D30053089E
:101ECE0052045104500403196D2F6E2F712FE1012E
:101EDE00E10A762F4C1C742F752F762F6E2F61080A
:101EEE0003197A2F7B2FAC2F0130CC07003003184B
:101EFE000130CD07003003180130CE070030031833
:101F0E000130CF074F1C8C2F8D2FAC2F4C08D000DB
:101F1E004D08D1004E08D2004F08D3000130D40036
:101F2E00530DD30CD20CD10CD00CD40B972F5308CD
:101F3E00CF005208CE005108CD005008CC00013021
:101F4E00DA070318DB0A0030DB075B08803AFF0074
:101F5E0080307F02031DB52FFF305A02031CB82FAD
:101F6E00B92FC72FFF3083120313DA000030DB00C6
:101F7E000030CF000030CE000030CD000030CC005D
:101F8E00831203135B08803AFF0080307F02031D2B
:101F9E00D22F01305A020318D52FD62FE32F8312DA
:101FAE000313DA01DB010030CF000030CE00003029
:101FBE00CD000030CC00D901831203135A08D00093
:101FCE005008E000601CEC2FED2FEF2FCE17F32FF3
:101FDE007F30D0005008CE056008D0000310500CA2
:101FEE00D1005108CF005908D0005008CF04972EC9
:021FFE000800D9
:102EA6008312031309152730F500F530F400F40BEF
:102EB6005A2FF50B5A2F8312031309110800831298
:102EC6000313A0000A128A150A210A168A11831210
:102ED600031320088800091089100A168A1153273F
:102EE6000A168A11080083120313A0000A128A1513
:102EF6000A210A168A11831203132008880009146E
:102F060089100A168A1153270A168A110800831295
:102F16000313A100A001211C912F922F962F740854
:102F2600F5007508A0070310F40D0310A10C210885
:102F3600031D9E2F9F2F8E2F200808008B170B171F
:102F4600831603138C160C12831203138C120C12A5
:102F5600831603139A011930990024309800903093
:102F6600831203139800831603178711F801F901DA
:102F7600F601F701080038300A168A1162270A1688
:102F86008A110C300A168A1162270A168A11013034
:102F96000A168A1162270A168A1106300A168A113B
:102FA60062270A168A1180300A168A1162270A16C3
:102FB6008A11080083120313A1002108F500750881
:102FC600A000ED2F0130F5007508A0070130F500CF
:102FD6007508F407740884000A128A150A200A166E
:102FE6008A11F50020088400750883138000000804
:0A2FF600031DFE2FFF2FE52F08003A
:04400E00D420FF3F7C
:00000001FF
