:020000040000FA
:060000000A128A11EB2F29
:10000800F2000A128A1537240A128A11720883121A
:1000180003138800091489100A128A1563230A1227
:100028008A110800F501F6017008710403191D28EA
:100038001E285528F701F70A2C2801300310F00D67
:10004800F10DFF3E031D22280130F4007408F70764
:10005800F11F2F283028212801300310F50DF60D47
:10006800FF3E031D312871087302031D3D287008E7
:100078007202031C4028412848287008F2027108BF
:10008800031CF303F302751401300310F10CF00C98
:10009800FF3E031D49280130F702031D5428552847
:1000A80030287608F1007508F00008000310831264
:1000B80003133C0D3D0DBE003E08C4004408031D5B
:1000C8006628672870280030BD000030BC0000306A
:1000D800BB000030BA00D5283A08BE003B08BF0074
:1000E8003C08C0003D08C1001F300310C10CC00C03
:1000F800BF0CBE0CFF3E031D79283E08C200420813
:10010800C300BC17FF30BA05FF30BB05FF30BC0584
:100118000030BD059630C402C41F93289428AE2829
:100128004408803A973E03189A289B289C286728F9
:1001380001300310BD0CBC0CBB0CBA0CFF3E031DF8
:100148009D280130BE003E08C407031DAC28AD2819
:100158009C28C52820304402031CB328B428C02892
:1001680067280130BE000310BA0DBB0DBC0DBD0DD4
:10017800BE0BB7280130C4024408031DC428C52893
:10018800B52843080319C928CA28D528BA09BB09BC
:10019800BC09BD09BA0A0319BB0A0319BC0A031929
:1001A800BD0A0800F80078080319DB28DC28F028C5
:1001B800F31FDF28E028F0287009FA007109FB0016
:1001C8007209FC007309FD00FA0A0319FB0A0319F6
:1001D800FC0A0319FD0AF8287308FD007208FC00E0
:1001E8007108FB007008FA00730872047104700447
:1001F800031DFF28002909290030F3000030F20010
:100208000030F1000030F0008F299630F4007408B7
:10021800F9001B290130F4007408F90701300310B4
:10022800FD0CFC0CFB0CFA0CFF3E031D1329FE30E1
:100238007D05031D202921290E293D290130F400BF
:100248007408F9070130FA07003003180130FB077A
:10025800003003180130FC07003003180130FD0797
:1002680001300310FD0CFC0CFB0CFA0CFF3E031DC7
:100278003529FF307D05031D4229432922294F29AD
:100288000130F9020130F4000310FA0DFB0DFC0DEA
:10029800FD0DF40B4829FC1B52295329592902301A
:1002A8007902031858295929442979185C295D29A4
:1002B8006529FF30FA05FF30FB057F30FC05FF306C
:1002C800FD050310F90C7908F400F501F601F701B2
:1002D80018300310F40DF50DF60DF70DFF3E031D54
:1002E8006D297408FA047508FB047608FC0477087D
:1002F800FD0478080319812982298729F31F852994
:1003080086298729FD177D08F3007C08F2007B0801
:10031800F1007A08F0000800831203131F083F3920
:1003280040389F001F14831603139F131F129F1238
:100338000130F3008030F4000A128A15EA230A1209
:100348008A11C73083120313D400AA29D40BA92910
:10035800AD29C330831203139F051F149F149F18E0
:10036800B629B729B3291E08D4005408ED00433034
:10037800BD007F30BC000030BB000030BA00403008
:10038800A300A030A2000030A1000030A0006D083A
:10039800D400D501D601D7015708F3005608F2005A
:1003A8005508F1005408F00001300A128A11D620CD
:1003B8000A128A11730883120313A7007208A60091
:1003C8007108A5007008A4000A128A118A240A126A
:1003D8008A11831203132308C1002208C0002108D0
:1003E800BF002008BE000A128A1523260A128A11A5
:1003F800831203133D0883160313A7008312031304
:100408003C0883160313A600831203133B088316C4
:100418000313A500831203133A0883160313A400D9
:10042800270883120313A7008316031326088312D1
:100438000313A60083160313250883120313A500CC
:1004480083160313240883120313A4004230A30065
:10045800C830A2000030A1000030A0000A128A11A2
:100468008A240A128A11831203132308BD00220862
:10047800BC002108BB002008BA000A128A115A20C1
:100488000A128A11831203133B08EB003A08EA00A8
:100498000A30F9000030FA006B08FC006A08FB001B
:1004A8000A128A15EF240A128A117A088312031392
:1004B800E9007908E8006908A5006808A4000A307E
:1004C800A6000030A700D0300A128A15C4230A12E9
:1004D8008A110A30F9000030FA000A30F0000030C2
:1004E800F100831203136B08F3006A08F2000A1282
:1004F8008A154A250A128A117108FC007008FB0047
:100508000A128A15EF240A128A117A088312031331
:10051800E7007908E6006708A5006608A4000A3025
:10052800A6000030A700CB300A128A15C4230A128D
:100538008A110A30F9000030FA006430F000003007
:10054800F100831203136B08F3006A08F2000A1221
:100558008A154A250A128A117108FC007008FB00E6
:100568000A128A15EF240A128A117A0883120313D1
:10057800E5007908E4006508A5006408A4000A30CD
:10058800A6000030A700C6300A128A15C4230A1232
:100598008A11D03083120313D4005408F000CB30F2
:1005A8000A128A1560240A128A1112308312031360
:1005B800D4005408F000C1300A128A15A3230A1285
:1005C8008A11CB3083120313D4005408F000C130D1
:1005D8000A128A1560240A128A11C1308312031381
:1005E800D4005408F000C6300A128A1560240A1292
:1005F8008A11C73083120313D400D40B012B831242
:1006080003131F08C33904389F001F149F149F1831
:100618000E2B0F2B0B2B1E08D4005408EC00433074
:10062800BD007F30BC000030BB000030BA00403055
:10063800A300A030A2000030A1000030A0006C0888
:10064800D400D501D601D7015708F3005608F200A7
:100658005508F1005408F00001300A128A11D6201A
:100668000A128A11730883120313A7007208A600DE
:100678007108A5007008A4000A128A118A240A12B7
:100688008A11831203132308C1002208C00021081D
:10069800BF002008BE000A128A1523260A128A11F2
:1006A800831203133D0883160313A3008312031355
:1006B8003C0883160313A200831203133B08831616
:1006C8000313A100831203133A0883160313A0002F
:1006D800230883120313A700831603132208831227
:1006E8000313A60083160313210883120313A5001E
:1006F80083160313200883120313A4004230A300B7
:10070800C830A2000030A1000030A0000A128A11EF
:100718008A240A128A11831203132308BD002208AF
:10072800BC002108BB002008BA000A128A115A200E
:100738000A128A11831203133B08E3003A08E20005
:100748000A30F9000030FA006308FC006208FB0078
:100758000A128A15EF240A128A117A0883120313DF
:10076800E1007908E0006108A5006008A4000A30EB
:10077800A6000030A700BC300A128A15C4230A124A
:100788008A110A30F9000030FA000A30F00000300F
:10079800F100831203136308F3006208F2000A12DF
:1007A8008A154A250A128A117108FC007008FB0094
:1007B8000A128A15EF240A128A117A08831203137F
:1007C800DF007908DE005F08A5005E08A4000A3093
:1007D800A6000030A700B7300A128A15C4230A12EF
:1007E8008A110A30F9000030FA006430F000003055
:1007F800F100831203136308F3006208F2000A127F
:100808008A154A250A128A117108FC007008FB0033
:100818000A128A15EF240A128A117A08831203131E
:10082800DD007908DC005D08A5005C08A4000A303A
:10083800A6000030A700B2300A128A15C4230A1293
:100848008A11BC3083120313D4005408F000B73067
:100858000A128A1560240A128A11123083120313AD
:10086800D4005408F000AD300A128A15A3230A12E6
:100878008A11B73083120313D4005408F000AD3046
:100888000A128A1560240A128A11AD3083120313E2
:10089800D4005408F000B2300A128A1560240A12F3
:1008A8008A11C0300A128A1572230A128A11C630B8
:1008B800F3000030F4000A128A15EA230A128A119A
:1008C8000F30F3008030F4000A128A15EA230A1266
:1008D8008A11B230F3000030F4000A128A15EA23B4
:1008E8000A128A110F30F3008030F4000A128A15B8
:1008F800EA230A128A11A830F3000030F4000A1221
:100908008A15EA230A128A11A529080083120313FB
:1009180023088039A8002808AD002308A800280764
:10092800A9002908B300A21F9A2C9B2C9C2C3314D5
:1009380033080319A02CA12CB02C330A031DA52CB5
:10094800A62CAE2C0030A3000030A2000030A1007D
:100958000030A000A217B82C0030A3000030A2007D
:100968000030A1000030A00027088039A80028081E
:10097800AD062708A8002807A9002908B200A61F65
:10098800C62CC72CC82C321432080319CC2CCD2CF9
:10099800DC2C320A031DD12CD22CDA2C0030A70013
:1009A8000030A6000030A5000030A400A617E42CF3
:1009B8000030A7000030A6000030A5000030A400D9
:1009C80032080319E82CE92CEE2C3308031DED2C12
:1009D800EE2CF72C0030A3000030A2000030A1005C
:1009E8000030A000EA2F2008A8002808F0002608F8
:1009F8000A128A1510240A128A1171088312031325
:100A0800B9007008B8003808A800A901AA01AB010C
:100A18002B08B1002A08B0002908AF002808AE004A
:100A28003908A800A901AA01AB012B08B7002A08B8
:100A3800B6002908B5002808B4002108A80028082D
:100A4800F00025080A128A1510240A128A11710862
:100A580083120313B9007008B8003808A800A90168
:100A6800AA01AB012808AE07290803110318013EA3
:100A780003193F2DAF072A0803110318013E031974
:100A8800462DB0072B0803110318013E03194D2DFD
:100A9800B1073908A800A901AA01AB012808B407C1
:100AA800290803110318013E03195B2DB5072A080D
:100AB80003110318013E0319622DB6072B08031111
:100AC8000318013E0319692DB7072208A800280852
:100AD800F00024080A128A1510240A128A117108D3
:100AE80083120313B9007008B8003808A800A901D8
:100AF800AA01AB012808AE07290803110318013E13
:100B08000319872DAF072A0803110318013E03199B
:100B18008E2DB0072B0803110318013E0319952DDC
:100B2800B1073908A800A901AA01AB012808B40730
:100B3800290803110318013E0319A32DB5072A0834
:100B480003110318013E0319AA2DB6072B08031138
:100B58000318013E0319B12DB7070830A800031088
:100B6800AE0DAF0DB00DB10DA80BB32D2108A80027
:100B78002808F00024080A128A1510240A128A117B
:100B8800710883120313B9007008B8003808A80068
:100B98003908A900AA01AB012808AE0729080311E2
:100BA8000318013E0319D92DAF072A0803110318AA
:100BB800013E0319E02DB0072B0803110318013E6D
:100BC8000319E72DB1072008A8002808F000250818
:100BD8000A128A1510240A128A1171088312031343
:100BE800B9007008B8003808A8003908A900AA0197
:100BF800AB012808AE07290803110318013E0319A1
:100C0800062EAF072A0803110318013E03190D2EFB
:100C1800B0072B0803110318013E0319142EB1075E
:100C28000830A8000310AE0DAF0DB00DB10DA80B24
:100C3800162E2008A8002808F00024080A128A1591
:100C480010240A128A11710883120313B90070085C
:100C5800B8003808A8003908A900AA01AB0128087B
:100C6800AE07290803110318013E03193C2EAF07EC
:100C78002A0803110318013E0319432EB0072B0855
:100C880003110318013E03194A2EB1072108A800D1
:100C98002808F00026080A128A1510240A128A1158
:100CA800710883120313B9007008B8003808A80047
:100CB8003908A900AA01AB012808B40729080311BB
:100CC8000318013E0319692EB5072A0803110318F2
:100CD800013E0319702EB6072B0803110318013EB5
:100CE8000319772EB7072208A8002808F00025085E
:100CF8000A128A1510240A128A1171088312031322
:100D0800B9007008B8003808A8003908A900AA0175
:100D1800AB012808B407290803110318013E031979
:100D2800962EB5072A0803110318013E03199D2EB4
:100D3800B6072B0803110318013E0319A42EB707A1
:100D48002208A8002808F00026080A128A1510248C
:100D58000A128A11710883120313B9007008B800C7
:100D68003808A8003908A900AA01AB010830031007
:100D7800A80DA90DAA0DAB0DFF3E031DBB2E28081B
:100D8800B407290803110318013E0319CC2EB5072F
:100D98002A0803110318013E0319D32EB6072B089E
:100DA80003110318013E0319DA2EB7072E08A8000D
:100DB8002F08A9003008AA003108AB00183003102A
:100DC800AB0CAA0CA90CA80CFF3E031DE32E2808A7
:100DD800B407290803110318013E0319F42EB507B7
:100DE8002A0803110318013E0319FB2EB6072B0826
:100DF80003110318013E0319022FB7070830A80092
:100E08000310AE0DAF0DB00DB10DA80B042F3308B4
:100E18003207A800A901A90D2808823EB8002908B0
:100E28000318013EFF3EB900362F0130A800031019
:100E3800B40DB50DB60DB70DA80B1B2FB11F252F7F
:100E4800262F272F34140130A8000310AE0DAF0D44
:100E5800B00DB10DA80B292FFF30B8070318B90A38
:100E6800FF30B907B61F392F3A2F192FB201B11F1A
:100E78003E2F3F2F5B2FFF302E05A800FF302F0598
:100E8800A900FF303005AA007F303105AB002B08E0
:100E98002A04290428040319522F532F562FB2016C
:100EA800B20A5B2F341C592F5A2F5B2F532F32084D
:100EB80003195F2F602F912F0130B40700300318FA
:100EC8000130B507003003180130B60700300318A9
:100ED8000130B707371C712F722F912F3408A800E3
:100EE8003508A9003608AA003708AB000130AC0065
:100EF8002B0DAB0CAA0CA90CA80CAC0B7C2F2B0847
:100F0800B7002A08B6002908B5002808B40001303F
:100F1800B8070318B90A0030B9073908803AFF0042
:100F280080307F02031D9A2FFF303802031C9D2F4B
:100F38009E2FA92F7F3083120313B7008030B6008D
:100F48000030B5000030B400DE2F831203133908D7
:100F5800803AFF0080307F02031DB42F0130380231
:100F68000318B72FB82FC42F003083120313B7000C
:100F78000030B6000030B5000030B400AD01DE2FFF
:100F8800831203133808A8002808B300FF30B405FB
:100F9800FF30B5057F30B6050030B705331CD52FB7
:100FA800D62FD72FB6173308A8000310280CA9008E
:100FB8002908B7002D08A8002808B7043708A30097
:100FC8003608A2003508A1003408A00008008313E1
:100FD800583084006E300A128A155B230A128A116F
:100FE800A0308400D5300A128A155B230A128A11B0
:100FF80083010A128A15892CFF1B0A2883137F187C
:1010080083170008840A0319FF0A080008308A00B9
:101018000408840A820700345334313420342034DD
:1010280020342034533432342034203420345334A0
:0E103800333400345634203400342E34003467
:1016B60064008001840A04060319003404065C2BC6
:1016C6008312031309152730F100F530F000F00BF3
:1016D6006A2BF10B6A2B8312031309110800F2001F
:1016E6000A128A1537240A128A15720883120313FE
:1016F6008800091089100A128A1563230A128A15AE
:10170600080038300A128A1572230A128A150C301C
:101716000A128A1572230A128A1501300A128A15CC
:1017260072230A128A1506300A128A1572230A12C1
:101736008A1580300A128A1572230A128A15080041
:10174600F3007308F1007108F200B12B0130F100CB
:101756007108F2070130F1007108F0077008840083
:101766000A128A150A200A128A15F10072088400E4
:101776007108831380000008031DC22BC32BA92BFD
:10178600080083120313A900A51FCA2BCB2BDB2B42
:101796002D30FD00290884007D0883138000013068
:1017A600FD007D08A907A409A509A40A0319A50A2D
:1017B6002508F9002408F8002708FB002608FA0087
:1017C60029080A128A15B1250A128A150800FF2B64
:1017D6007408FF00730884000A128A1500200A1292
:1017E6008A150A128A1104200A128A150130F30793
:1017F6000318F40A0030F407740883120313FF0079
:10180600730884000A128A1500200A128A15003A03
:10181600031D0E2C0F2CEB2B0800F800F401F5012C
:101826007008F200F3017208F6007308F700781CDE
:101836001D2C1E2C242C7608F4070318F50A7708AD
:10184600F50701300310F60DF70DFF3E031D252C9D
:101856000310F80C7808031D312C322C1A2C75084D
:10186600F1007408F0000800FF30831203138800AB
:101876008030F00070088805091089140911273096
:10188600F100F530F000F00B462CF10B462C8312DC
:101896000313091580300806031D522C532C5F2CA8
:1018A60009112730F100F530F000F00B582CF10B40
:1018B600582C8312031309150800F3007308F1006E
:1018C6007108F2006A2C0130F1007108F207720803
:1018D600840083130008031D712C722C662C7B2C4C
:1018E6000130F1007108F2070130F1007108F007CC
:1018F600700884000008F1007208840071088000F6
:101906000008031D872C882C732C080083160313EC
:101916000F088F3960388F008F110F118F100F1439
:1019260003308316031788008901033083160313D7
:1019360085008601880187018901831203138501C9
:1019460086018701880189010A128A1584230A12F1
:101956008A150A128A1190210A128A15A72C0A12D0
:101966008A110028700871040319BA2CBB2CEA2CC2
:10197600F501F50AC92C01300310F00DF10DFF3EFB
:10198600031DBF2C0130F4007408F507F11FCC2CA1
:10199600CD2CBE2C71087302031DD32C7008720265
:1019A600031CD62CD72CDD2C7008F2027108031C00
:1019B600F303F30201300310F10CF00CFF3E031D9C
:1019C600DE2C0130F502031DE92CEA2CCD2C730820
:1019D600F1007208F000080083120313A101FC1F36
:1019E600F52CF62CFD2CFB09FC09FB0A0319FC0A55
:1019F600A101A10AFA1F002D012D062DF909FA09E8
:101A0600F90A0319FA0A79087A0403190B2D0C2D21
:101A16003B2DA001A00A1A2D01300310F90DFA0D75
:101A2600FF3E031D102D0130FD007D08A007FA1FA3
:101A36001D2D1E2D0F2D7A087C02031D242D7908DD
:101A46007B02031C272D282D2E2D7908FB027A08F0
:101A5600031CFC03FC0201300310FA0CF90CFF3ED8
:101A6600031D2F2D0130A002031D3A2D3B2D1E2DE7
:101A7600210803193F2D402D452DFB09FC09FB0AC2
:101A86000319FC0A7C08FA007B08F9000800F60135
:101A9600F11F4E2D4F2D562DF009F109F00A0319AD
:101AA600F10AF601F60AF31F592D5A2D632DF20994
:101AB600F309F20A0319F30A0130F4007408F60672
:101AC600F701F8017008710403196A2D6B2DA22D18
:101AD600F501F50A792D01300310F00DF10DFF3EE9
:101AE600031D6F2D0130F4007408F507F11F7C2DDE
:101AF6007D2D6E2D01300310F70DF80DFF3E031DF1
:101B06007E2D71087302031D8A2D70087202031C54
:101B16008D2D8E2D952D7008F2027108031CF3038E
:101B2600F302771401300310F10CF00CFF3E031D95
:101B3600962D0130F502031DA12DA22D7D2D7608CF
:101B46000319A62DA72DAC2DF709F809F70A0319D5
:101B5600F80A7808F1007708F000080083120313EA
:101B6600A3007908A1007808A0007B08F1007A0894
:101B7600F0002108F3002008F2000A128A1116204C
:101B86000A128A15710883120313A1007008A000B7
:101B96000130FC007C08A30720082104031DD42D76
:101BA600D52DB82D23088400831380010130A302AC
:101BB6007B08F1007A08F0007908F3007808F20053
:101BC6000A128A15B5240A128A157008FC007C08C8
:101BD60083120313A2007B08F1007A08F00079084B
:101BE600F3007808F2000A128A1116200A128A15E2
:101BF6007108F9007008F8000A30831203132202F4
:101C0600031C062E072E0B2E0730FC007C08A207AD
:101C16003030FC007C08A2072208FC002308840060
:101C26007C08831380000130A30278087904031D21
:101C36001D2E1E2EDB2D0130FC007C08A30708009C
:101C46008312031341088039C2004208CB004108C1
:101C5600C2004207C3004308D200C01F332E342EF1
:101C6600352E521452080319392E3A2E4A2E520A8C
:101C7600031D3E2E3F2E472E0030C1000030C0000F
:101C86000030BF000030BE00C017C101522E003028
:101C9600C1000030C0000030BF000030BE003D086B
:101CA6008039C2004208CB063D08C2004207C30085
:101CB6004308D300BC1F602E612E622E53145308B6
:101CC6000319662E672E772E530A031D6B2E6C2E74
:101CD600742E0030BD000030BC000030BB00003068
:101CE600BA00BC17BD017F2E0030BD000030BC001D
:101CF6000030BB000030BA003D083C043B043A0407
:101D0600031D862E872EA02E0030C1000030C00095
:101D16000030BF000030BE008030C0047F30C104F8
:101D26004B08C2004208C1044108BD004008BC007F
:101D36003F08BB003E08BA00FF2F5208031DA42E21
:101D4600A52EAE2E0030BD000030BC000030BB001A
:101D56000030BA00FF2F5208C200C3014308C50075
:101D660053084202C400031CC50344087F3ECC004E
:101D760045080318013E003ECD004108CA00400850
:101D8600C9003F08C8003E08C7000030C100003047
:101D9600C0000030BF000030BE000030D10000306F
:101DA600D0000030CF000030CE00D301242F5308DE
:101DB6000319DE2EDF2EFF2E0130C2000310C70DE1
:101DC600C80DC90DCA0DC20BE12E0130C2000310A9
:101DD600BE0DBF0DC00DC10DC20BEA2ED11FF42ED4
:101DE600F52EF62E3E140130C2000310CE0DCF0D97
:101DF600D00DD10DC20BF82E3D084A02031D0D2F42
:101E06003C084902031D0D2F3B084802031D0D2FF8
:101E16003A084702031C102F112F202F51173A089A
:101E2600C7023B08031C3B0FC8023C08031C3C0FBF
:101E3600C9023D08031C3D0FCA020130C200420818
:101E4600D3071A305302031C292F2A2FDA2E4A08E9
:101E56004904480447040319312F322F512F4E14D9
:101E6600512F0130C2000310BE0DBF0DC00DC10DB4
:101E7600C20B362FD11F402F412F422F3E14013067
:101E8600C2000310CE0DCF0DD00DD10DC20B442FC5
:101E9600FF30CC070318CD0AFF30CD07C01F542FE3
:101EA600552F342FD301D11F592F5A2F762FFF309C
:101EB6004E05C200FF304F05C300FF305005C40079
:101EC6007F305105C5004508440443044204031904
:101ED6006D2F6E2F712FD301D30A762F3E1C742FD0
:101EE600752F762F6E2F530803197A2F7B2FAC2F61
:101EF6000130BE07003003180130BF070030031859
:101F06000130C007003003180130C107411C8C2F77
:101F16008D2FAC2F3E08C2003F08C3004008C40006
:101F26004108C5000130C600450DC50CC40CC30CE4
:101F3600C20CC60B972F4508C1004408C0004308D1
:101F4600BF004208BE000130CC070318CD0A00309E
:101F5600CD074D08803AFF0080307F02031DB52F64
:101F6600FF304C02031CB82FB92FC72FFF30831246
:101F76000313CC000030CD000030C1000030C0009B
:101F86000030BF000030BE00831203134D08803AB4
:101F9600FF0080307F02031DD22F01304C02031850
:101FA600D52FD62FE32F83120313CC01CD0100309A
:101FB600C1000030C0000030BF000030BE00CB01C1
:101FC600831203134C08C2004208D200521CEC2FA5
:101FD600ED2FEF2FC017F32F7F30C2004208C00548
:101FE6005208C2000310420CC3004308C1004B084C
:0A1FF600C2004208C104972E080043
:04400E00D420FF3F7C
:00000001FF
