:020000040000FA
:060000000A128A110C280F
:10000800FE00030EF1000A08F2000A128A118E2877
:100018000A128A110F28F701F801F901FA01830180
:100028000A128A1117287030831603138F048F1150
:100038000F118F100F1401308316031788008901E0
:100048000130831603138500860188018701890121
:1000580083120313850186018701880189010A1229
:100068008A1170200A128A11831203131F149F1415
:100078009F183F2840283C281A30F600F830F50031
:10008800F50B4428F60B442800000A128A11522066
:100098000A128A1133280A128A110C2833307A027C
:1000A8000318572858285E2883120313081088104D
:1000B80008156F284B307A02031C632864286A28C5
:1000C800831203130814881008116F28831203136E
:1000D80008108814081108008B170B1783160313D0
:1000E8000C17831203130C131F083F3940389F0065
:1000F800C3309F051F14831603139F179F121F12E7
:100108001A30F400F830F300F30B8828F40B882831
:1001180000000800831203130C1F932894289D28BD
:10012800831603131E08F0007008FA0083120313E5
:100138000C1372088A00710E8300FE0E7E0E0900F1
:04400E00D420FF3F7C
:00000001FF
