:020000040000FA
:060000000A128A110C280F
:10000800FE00030EF1000A08F2000A128A116C2899
:100018000A128A110F28F70183010A128A1114287B
:100028007030831603138F048F110F118F100F1464
:1000380001308316031788008901013083160313E2
:1000480085008601880187018901831203138501D0
:1000580086018701880189010A128A114E200A1235
:100068008A11831203131F149F149F183C283D28DC
:1000780039281A30F600F830F500F50B4128F60B50
:1000880041280000770883120313880030280A12D9
:100098008A110C288B170B17831603130C1783125E
:1000A80003130C131F083F3940389F00C3309F05C6
:1000B8001F14831603139F139F121F121A30F40084
:1000C800F830F300F30B6628F40B662800000800EC
:1000D800831203130C1F7128722877281E08F0005A
:1000E8007008F7000C1372088A00710E8300FE0E68
:0400F8007E0E09006F
:04400E00D420FF3F7C
:00000001FF
