:020000040000FA
:060000000A128A110C280F
:10000800FE00030EF5000A08F6000A128A116C2891
:100018000A128A110F28F001F101F201F30183019C
:100028000A128A11442883120313061C1C281D284F
:100038001F28F201F20A0618222823282E28720304
:10004800031D272828282E28F2017008013EF400F5
:100058007408F000861C312832283428F101F10A8E
:1000680086183728382843287103031D3C283D2863
:100078004328F1017008FF3EF4007408F0000800FE
:100088007030831603138F048F110F118F100F1404
:10009800831603178801890183160313850103302A
:1000A800860088018701890183120313850186016F
:1000B8008701880189010A128A117D200A128A1192
:1000C80070088312031388005F280A128A110C280B
:1000D8000B1C6F28702876280A128A1117200A121A
:1000E8008A110B1076088A00750E8300FE0E7E0EAC
:1000F80009008B170B178B150B10831603130614A7
:08010800861416149614080079
:04400E00D420FF3F7C
:00000001FF
