:020000040000FA
:060000000A128A110C280F
:10000800FE00030EF2000A08F3000A128A1185287E
:100018000A128A110F28F601F701F801F901FA010D
:1000280083010A128A1118287030831603138F046B
:100038008F110F118F100F14831603178801890170
:10004800203083160313850003308600880118309A
:1000580087008901831203138501860187018801BE
:100068008901831603138C158B170B17831203133F
:100078008C110A128A11AE200A128A110A128A11E8
:10008800C7200A128A1177088312031388001A30CE
:10009800F500F830F400F40B4F28F50B4F2800005A
:1000A80042280A128A110C2883120313061C5D28A1
:1000B8005E286028F901F90A0618632864286F2861
:1000C8007903031D682869286F28F9017708013E1C
:1000D800F0007008F700861C722873287528F8014C
:1000E800F80A86187828792884287803031D7D283B
:1000F8007E288428F8017708FF3EF0007008F70092
:1001080008000B1C8828892890280A128A11582070
:100118000A128A110B10A728831203138C1D952825
:100128009628A7280A128A11D2200A128A11F100E9
:100138007108F60077080A128A11DC200A128A115F
:10014800831203138C1173088A00720E8300FE0E4B
:100158007E0E0900831603139413141383120313DA
:10016800941614161408F0390438940083160313EF
:1001780087120712871585168C158B170B17831294
:1001880003138C1108008B170B178B150B10831694
:100198000313061486141614961408008316031302
:1001A800141CD728D828D228831203131308080050
:0C01B800F000700883120313930008008D
:04400E00D420FF3F7C
:00000001FF
