:020000040000FA
:060000000A128A110C280F
:10000800FE00030EF2000A08F3000A128A115928AA
:100018000A128A110F28F801F90183010A128A11BC
:1000280015287030831603138F048F110F118F104A
:100038000F140130831603178800890121308316B5
:10004800031385008601880118308700890183120F
:10005800031385018601870188018901831603132B
:100068008C158B170B17831203138C110A128A1124
:100078009F200A128A110A128A1181200A128A11F3
:10008800831203131F149F149F184B284C284828C9
:100098001A30F700F830F600F60B5028F70B502806
:1000A80000003F280A128A110C28831203130C1F20
:1000B8005E285F2865281E08F1007108F9000C13F6
:1000C8007A288C1D682869287A280A128A11B8208B
:1000D8000A128A11F1007108F80079080A128A11C7
:1000E800C2200A128A11831203138C1173088A0022
:1000F800720E8300FE0E7E0E09008B170B178316F7
:1001080003130C17831203130C131F083F394038CD
:100118009F00C3309F051F14831603139F139F125C
:100128001F121A30F500F830F400F40B9928F50B7B
:1001380099280000080083160313941314138312DC
:100148000313941614161408F0390438940083160F
:10015800031387120712871585168C158B170B1733
:10016800831203138C11080083160313141CBD2873
:10017800BE28B8288312031313080800F00070087B
:08018800831203139300080029
:04400E00D420FF3F7C
:00000001FF
