:020000040000FA
:060000000A128A110C280F
:10000800FE00030EF2000A08F3000A128A1168289B
:100018000A128A110F28F80183010A128A1114287A
:100028007030831603138F048F110F118F100F1464
:1000380001308316031788008901213083160313C2
:10004800850086018801183087008901831203130F
:1000580085018601870188018901831603138C15A0
:100068008B170B17831203138C11F401F501F6019A
:1000780024300A128A11AE200A128A110A128A1131
:1000880090200A128A11831203131F149F149F18B9
:100098004E284F284B281A3083120313A100F7303B
:1000A800A000A00B5528A10B55285A280D30831203
:1000B8000313A100FB30A000A00B6028A10B60284F
:1000C80042280A128A110C28831203130C1F6D2868
:1000D8006E2874281E08F1007108F8000C1389288E
:1000E8008C1D7728782889280A128A11C4200A12B8
:1000F8008A1183120313880078080A128A11D420FF
:100108000A128A11831203138C1173088A00720E63
:100118008300FE0E7E0E09008B170B178316031340
:100128000C17831203130C131F083F3940389F0024
:10013800C3309F051F14831603139F139F121F12AA
:100148001A30F500F830F400F40BA828F50BA828AD
:1001580000000800F700831603138712771DB528DF
:10016800B628BA28760894008715BE28740876043D
:10017800940087117708750483120313940008000C
:100188000A128A11CD200A128A1183120313130846
:10019800080083160313141CD228D328CD2808007E
:0C01A800F000700883120313930008009D
:04400E00D420FF3F7C
:00000001FF
